:020000040800F2
:100000005854002095030008B9480008AB45000883
:100010005D480008E92B00082D5000080000000092
:10002000000000000000000000000000D5020008F1
:10003000EB2B0008000000003103000869490008AC
:10004000AF030008AF030008AF030008AF030008C8
:10005000AF030008AF030008AF030008AF030008B8
:10006000AF030008AF030008AF030008AF030008A8
:10007000AF030008AF030008AF030008AF03000898
:10008000AF030008AF030008AF030008AF03000888
:10009000AF030008AF030008AF030008AF03000878
:1000A000AF030008AF030008AF030008AF03000868
:1000B0002D4A0008AF030008AF030008AF03000893
:1000C000AF030008AF030008AF030008AF03000848
:1000D000AF03000821500008AF030008AF03000879
:1000E000AF030008AF030008AF030008AF03000828
:1000F0005D4A0008514A0008AF030008AF0300083A
:10010000AF030008AF030008394A0008AF03000836
:10011000AF030008AF030008AF030008454A00081A
:10012000AF030008AF030008AF030008AF030008E7
:10013000AF030008AF030008AF030008AF030008D7
:10014000AF030008AF030008AF030008AF030008C7
:10015000AF030008AF030008AF030008AF030008B7
:10016000AF030008AF030008AF030008AF030008A7
:10017000AF030008AF030008AF0300080000000051
:10018000AF030008AF03000800F002F800F092F897
:100190000AA090E8000C82448344AAF10107DA45E2
:1001A00001D100F087F8AFF2090EBAE80F0013F0A2
:1001B000010F18BFFB1A43F001031847207300001A
:1001C00040730000103A24BF78C878C1FAD85207AB
:1001D00024BF30C830C144BF04680C6070470000C1
:1001E0000023002400250026103A28BF78C1FBD840
:1001F000520728BF30C148BF0B6070476E2900F01E
:100200001783702900F06184662907F02B80652927
:1002100007F02880672907F02580612907F02480EE
:1002200003681B0A28BF41F08001692900F0C482DD
:10023000642900F0C182752900F0BE826F2900F0A8
:10024000EE83782900F02D84E92900F08983E429E0
:1002500000F08683F52900F08383EF2900F0EB831B
:10026000F82900F02C840368DB0928BF41F08001E5
:10027000632901F02182732901F02682E32901F02C
:100280003182F32901F03682002070471FB506F055
:10029000DCFF01F0E7FA04000020002106F05CFD1D
:1002A000401C60600020002106F040FDE0601FBDA2
:1002B00010B510BD01F0B1FA1146FFF7E7FF05F0E8
:1002C00061F801F00FFE03B4FFF7F2FF03BC01F089
:1002D00013FE00002C4B19680868B0E8F04F80F35B
:1002E0000988BFF36F8F4FF0000080F311887047CB
:1002F0000000000008480068006880F308884FF09C
:10030000000080F3148862B661B6BFF34F8FBFF36D
:100310006F8F00DF00BF00BF08ED00E0DFF80C00CA
:10032000016841F470010160704700BF88ED00E092
:10033000EFF30980BFF36F8F134B1A681EF0100F95
:1003400008BF20ED108A20E9F04F106009B44FF08B
:10035000500080F31188BFF34F8FBFF36F8F05F00C
:10036000B7FF4FF0000080F3118809BC19680868D6
:10037000B0E8F04F1EF0100F08BFB0EC108A80F309
:100380000988BFF36F8F704730000020EFF30580BE
:10039000704700000948804709480047FEE7FEE72C
:1003A000FEE7FEE7FEE7FEE7FEE7FEE7FEE7FEE725
:1003B00004480549054A064B704700001D4A0008DD
:1003C00089010008584E0020585400205850002041
:1003D0005850002053EA020C00F069802DE9F04BE0
:1003E0004FF00006002B1FBFB3FA83F503FA05F4A4
:1003F00024FA05F65E4012BF1643B2FA82F502FAFD
:1004000005F4C5F120051EBF22FA05FC44EA0C04E0
:10041000203556EA044C4FEA144418BF641C4FF0D0
:1004200000084FF00009904271EB030C39D300290A
:1004300019BFB1FA81F701FA07F6B0FA80F700FAAE
:1004400007F6C7F120071EBF20FA07FC46EA0C0694
:100450002037B6FBF4FCA7EB0507103F07F01F0B96
:10046000CBF120060CFA0BFB2CFA06F644BFB34680
:100470000026202FA4BF5E464FF0000B5BEA060C5F
:1004800008BF4FF0010B19EB0B09ABFB027C48EBEB
:100490000608C01B06FB02CC0BFB03CC71EB0C0166
:1004A000C1E70B46024641464846BDE8F08B13B50E
:1004B0004FF000004FF00001AFF30080BDE81C409A
:1004C000704700007CB51D4616460C00009001D018
:1004D0002044401E074B7B442A4669460190304623
:1004E00000F0BFF905461CB10020694600F0CCF9C8
:1004F00028467CBDB903000070B5064600F0EAF856
:100500000468054630460A22002100F0FFFB2C60FB
:1005100070BD401ECAB210F8011F8A4202D00029E5
:10052000F9D10020704710B5431C02E010F8011B00
:1005300071B18107FAD14FF0013202C88C1A8C4395
:1005400014EAC211F9D0C01A0A0603D0C01E10BDA9
:10055000C01A10BD0A0401D0801E10BD0902FCD0D3
:10056000401E10BD032A40F2308010F0030C00F052
:10057000158011F8013BBCF1020F624498BF11F8DD
:1005800001CB00F8013B38BF11F8013BA2F1040296
:1005900098BF00F801CB38BF00F8013B11F003030E
:1005A00000F0EC83083AC0F0088051F8043B083AA8
:1005B00051F804CBA0E80810F5E7121D5CBF51F814
:1005C000043B40F8043BAFF30080D20724BF11F88E
:1005D000013B11F801CB48BF11F8012B24BF00F8F3
:1005E000013B00F801CB48BF00F8012B704702F037
:1005F000FF0343EA032242EA024200F0F3BB4FF05A
:10060000000200B5134694469646203922BFA0E862
:100610000C50A0E80C50B1F12001BFF4F7AF09076E
:1006200028BFA0E80C5048BF0CC05DF804EB89005F
:1006300028BF40F8042B08BF704748BF20F8022BA2
:1006400011F0804F18BF00F8012B70474FF0013CAC
:1006500050F8042B51F8043B9A4221D1A2EB0C0331
:10066000934313EACC1317D150F8042B51F8043BF1
:100670009A4215D1A2EB0C03934313EACC130BD18E
:1006800050F8042B51F8043B9A4209D1A2EB0C0319
:10069000934313EACC13DBD04FF00000704700BF48
:1006A000D01A01BAB1FA81F101F0180122FA01F071
:1006B000CB40C1F12001DBB2C0B2C01A2CFA01F369
:1006C000D11A914311EAC311E6D1704770477047C0
:1006D0007047000000487047F84D002010B5FFF744
:1006E000F9FF006810BD10B50446FFF7F3FF046082
:1006F00010BD70B5044685690068C10601D5302675
:1007000000E02026C00707D070BDD4E901213046A3
:100710009047206A401C20626D1EF6D570BD70B5F2
:10072000044685690078C00707D170BDD4E901216E
:1007300020209047206A401C20626D1EF6D570BDB7
:1007400009684A0501D540B27047C905FCD500B219
:10075000704709684A0501D5C0B27047C905FCD584
:1007600080B2704770B50C460546012A05D028783E
:10077000800600D5EA69002302E0012305E05B1C46
:10078000934202D2E05C0028F9D1A869E618C01AA9
:10079000A861286A184428622846FFF7AAFF04E0E7
:1007A000D5E9012114F8010B9047B442F8D328464B
:1007B000FFF7B5FF70BD00002DE9F04106460024AB
:1007C00010687529314616A510D0FFF7B9FF00282B
:1007D00002DA404213A507E031688A0701D512A565
:1007E00002E0490704D511A5012401E0FFF7B1FF9C
:1007F00000210A2206F1240709E0B0FBF2FCB0FB5D
:10080000F2F302FB1C00303078541846491C0028D3
:10081000F3D123462A463046BDE8F04100F05CBBE8
:10082000000000002D0000002B0000002000000050
:1008300011680268006A530501D508700AE0D30503
:1008400001D5088006E0130603D5C217C1E90002EE
:1008500000E008600120704701694A1C02610878C5
:10086000704700B58FB0CDE90131002105910549F0
:100870007944CDE903101146684600F031F90FB014
:1008800000BD0000E5FFFFFF0A6802F8010B0A60E7
:100890007047D1E900239A4202D2531C0B601070BA
:1008A000704700002DE9FF5F15468A460446DFF8D1
:1008B000AC80F8440027D8E900103E46CDE900108E
:1008C00010E03AF816106A4602A800F086FF411CB4
:1008D00007D02178890603D5E269391891420DD8ED
:1008E0000744761C2078800602D5E069B84205DD11
:1008F000AE42E6DB3AF816000028E2D1A069C01B40
:10090000A0612046FFF7F5FED8E90010CDE9001000
:10091000002017E03AF818106A4602A800F05DFFC0
:10092000B0F1FF3F81460BD000250DF1080B05E02B
:10093000D4E901211BF8050090476D1C4D45F7D304
:1009400008F10100B0428046E4DB206A38442062AE
:100950002046FFF7E4FEBDE8FF9F0000126B000099
:100960002DE9F0418046D21D22F007020025D2E990
:100970000002F52915A614D0011E72F1000106DA55
:100980000023D0EB030063EB020211A608E0D8F8C5
:1009900000108B0701D50FA602E0490701D50EA66E
:1009A00001251146002408F1240704E000F046FA6E
:1009B00030323A55641C50EA0102F7D12B463246D8
:1009C00021464046BDE8F04100F086BA0000000034
:1009D0002D0000002B0000002000000030B400219A
:1009E00000F1240408E002F00705D208303542EA9D
:1009F0004372DB086554491C52EA0305F3D10468CD
:100A0000002310A2250707D5A40600D421B1C4698C
:100A100001230DA2641EC46130BC00F05DBA10B5A4
:100A2000044621461068FFF794FE02462046BDE8C2
:100A300010400023D2E7D21D22F00701D1E90023A4
:100A4000CCE700000000000030000000F0B40D46CC
:100A50000188090502D5214C7C4402E01F4C7C44EE
:100A60000E34002100F1240608E002F00F071209FD
:100A7000E75D42EA03721B097754491C52EA0307F7
:100A8000F3D102780023120704D5702D06D009B1E6
:100A9000022311342246F0BC00F01EBA01231034A8
:100AA000F8E770B504460D4621461068FFF751FE81
:100AB000024629462046BDE870400023C6E7D21D05
:100AC00022F00703D3E90023C0E70368126843F06C
:100AD000200303600823C3610023B7E774690000A3
:100AE0002DE9F05F894604464FF0000ADFF874B143
:100AF000FB44C0F820A02046E1688847002874D055
:100B0000252806D0D4E901219047206A401C2062A4
:100B1000F1E700265F462046E16888472028054621
:100B200007DB312D05D2781910F8200C08B10643E7
:100B3000F1E7B00701D526F00406C4F81CA0002791
:100B4000C4F818A02A2D09D0284604F0CCFB38B3ED
:100B500004EB8708303DC8F8185019E059F8041B19
:100B6000204604EB87029161E1688847012F054622
:100B700018D1E069002820DA26F020061DE0D8F818
:100B8000180000EB800005EB40003038C8F8180072
:100B90002046E1688847054604F0A5FB0028EED111
:100BA000012F0AD02E2D08D12046E16888477F1CEE
:100BB0000546022F46F02006C4DBA069002803DAB0
:100BC000404246F00106A061F00701D026F0100671
:100BD0006C2D0BD0682D09D04C2D39D06A2D35D015
:100BE000742D35D07A2D33D016E038E0E1682F46E9
:100BF00020468847B842054609D16C2F26D04FF4CD
:100C00008060E168064320468847054604E06C2F73
:100C10001AD04FF4807006430DB3A5F14100192896
:100C200002D8203546F400664A462946204626600A
:100C30004E46FFF7E3FA80B101280BD0F61D26F0EF
:100C4000070000F1080956E74020E4E78020D8E7D4
:100C50000020D6E706F104094DE7284652E7206A4E
:100C6000BDE8F09F046900000FB4002300B589B00F
:100C70000CA900910B99CB60214B7B440693214B2F
:100C80007B44079304236FF00042CDE901321E4AF2
:100C90007A446B4608920246002006F047FB09B0F2
:100CA0005DF814FB70B506464FF0FF3015460C4654
:100CB000324686B00091CDE90101694600200490DA
:100CC00004A8FFF7D1FF02460498211825B108B106
:100CD000084600E020462860049800280DD0002A2D
:100CE00002DD0098884208D03246081B694600940D
:100CF000CDE9010404A8FFF7B7FF06B070BD0000FE
:100D00007F0A0000970A0000330200002DE9F04737
:100D100091460F4680460446002614F8015B2DB12B
:100D200000F084F80068405DC007F6D12B2D02D09A
:100D30002D2D18D0641E4A463946204600F0FEFC90
:100D400027B13968A14201D1C7F800804FF00204F1
:100D500071050BD54042002803DDFFF7BBFC0460A2
:100D6000A007BDE8F08746F48066E4E70028F8DADB
:100D7000FFF7B0FC04606FF00040F2E710B5203AD6
:100D8000C0F00B80B1E81850203AA0E81850B1E844
:100D90001850A0E81850BFF4F5AF5FEA027C24BFFA
:100DA000B1E81850A0E8185044BF18C918C0BDE8F1
:100DB00010405FEA827C24BF51F8043B40F8043BBA
:100DC00008BF7047D20728BF31F8023B48BF11F86F
:100DD000012B28BF20F8023B48BF00F8012B7047C9
:100DE0004FF000020429C0F0128010F0030C3FF411
:100DF00008ACCCF1040CBCF1020F18BF00F8012BB9
:100E0000A8BF20F8022BA1EB0C01FFF7FABB5FEAA9
:100E1000C17C24BF00F8012B00F8012B48BF00F86B
:100E2000012B704700487047F84D002010B500F0C6
:100E300019FD001D10BD00BF215F000030B5B0F1ED
:100E40000A024FEA900E71F100034EEA817EB0EB88
:100E50000E0061EB91014FEA101E4EEA017E10EB8D
:100E60000E0041EB11114FEA102E4EEA016E10EB0D
:100E70000E0041EB11214FEA104E4EEA014E10EBED
:100E80000E0041EB1141401841F100014FEAD00042
:100E900040EA41704FEAD10110EB80054FEA81042E
:100EA00044EA907444EB01046D1944EB0404521BB2
:100EB000A3414FF0000348BF0A3200D530BD401CAB
:100EC00041F1000130BD10B50446FFF7AFFF0068E7
:100ED000005D00F0010010BD2DE9F0470D46994678
:100EE0009246044600F124080168880604D5E069AA
:100EF00021F01001216000E00120A84201DD471B24
:100F000000E00027A1697A1902EB0900081AA06124
:100F10002078C00602D42046FFF7EBFB002608E04D
:100F2000D4E901211AF806009047206A401C761C7B
:100F300020624E45F4DB2078C0060AD52046FFF734
:100F4000D8FB06E0D4E9012130209047206A401CFC
:100F50002062381EA7F10107F4DC07E0D4E9012183
:100F600018F805009047206A401C2062281EA5F151
:100F70000105F3DC2046FFF7D2FB2078000602D5FE
:100F80000220BDE8F0870120FBE770472DE9FF4F05
:100F90000C461E464FF0FF378BB0D2E90001DDF85A
:100FA00060800A908A46C1F30A5505B93D46002182
:100FB00008464FF00000BAF1000F00F4400005DAD7
:100FC00000EB80004FF4400101EA50004FEA9059D5
:100FD000B9F1010F00DDB9460A9850EA4A000ED077
:100FE00044F61050A5F2FF3545432F14B8F1000F19
:100FF0001ED07542291E1EDDC9F100021CE0B8F1A9
:10100000010F4FF0000001D0302103E0F24305E072
:101010002154401CB042FBDB304600220021215409
:101020000B99C1F80880C1E900200FB0BDE8F08F2E
:10103000BD1B6D1CDEE74A4600DA694206A800F0D7
:10104000DFFE06AB93E8070003AB83E807005046DA
:101050000A9901F095F98DE80700A0F500501F38B6
:1010600000900398002D0ADD42F21F014A46084411
:10107000002303A90390684601F040FC09E0A0F5B5
:1010800000504A461F38002303A90390684601F028
:101090005FFC8DE807000004000C03D04FF0FF3028
:1010A000410800E01046B8F1000F03D00022009282
:1010B00015461EE0751E05D4FFF7C0FE303262559E
:1010C0006D1EF9D5B3460122084302D000227F1CD1
:1010D00004E02078302801D100227F1E002A0997E1
:1010E00084D01DE0112D07DAFFF7A8FE30326255DB
:1010F0006D1C50EA0102F5D1084302D00098C8B136
:101100000EE00021681E05E0235C625C63542254FB
:10111000401E491C8142F7DBAB46A81B401E0990CC
:10112000002004F80B000B98099AC0F80880C0E969
:10113000002B7AE711264FF0000857E72DE9F04F12
:1011400088460446D21D22F0070191B0D1E9000182
:10115000CDE90A0103F06BFF02460B98C00F01D0E6
:101160002D2007E02068810701D52B2002E02021F7
:1011700001EAC000032A099001D0072A05DB0346D3
:101180004146204600F072FB0BE12078800601D535
:10119000E06900E00620B8F1650F814606D0B8F19D
:1011A000660F18D0B8F1670F70D131E00020B9F1A7
:1011B000110F009001DB112301E009F101030AAADC
:1011C00001A90CA8FFF7E2FEDDE90C70002609F189
:1011D0000105834647E001204B4600904FF0004751
:1011E0000AAA01A90CA8FFF7D1FEDDE90DB00C9900
:1011F0005D46002610B909F101000D18B9EB050094
:1012000003D4C0F1FF3609F10105A5EB09002BE07D
:10121000B9F1010F01DA4FF001090020B9F1110F06
:101220000090484601DD112300E003460AAA01A907
:101230000CA8FFF7ABFEDDE90C704D460026834697
:10124000207800070AD4AB4500DA5D4601A8012DDD
:1012500004DD411911F8011C302907D04F4502DA8D
:1012600017F1040F04DA012082460FE06D1EEEE74D
:10127000002F02DCED1B3E4403E0781CA84200DD99
:101280007D1CB81B00F1010A4FF0004720780007D1
:1012900003D4AA4501DB4FF0FF3A0021B7F1004F1C
:1012A0000DF143088DF8431024D002202B23002F8A
:1012B00001DA7F422D230A21021EA0F1010000DC89
:1012C0005FB197FBF1FC97FBF1F201FB1C7C174629
:1012D0000CF1300C08F801CDEEE7A8F10100037025
:1012E0002188090501D5452100E06521A0F101080B
:1012F00000F8011C09980FA9A1EB0807FF1D00B118
:101300000120411901EBEA70A1693844081A401E16
:10131000A0612078C00602D42046FFF7EAF90998B8
:1013200028B1D4E901219047206A401C206220782E
:10133000C00622D52046FFF7DCF91EE0002E04DBB4
:10134000B34502DD01A8805D00E03020D4E9012131
:101350009047206A401C2062761CAAF101005FEAD7
:10136000000A0AD100F07EFAC0680168405CD4E946
:1013700001219047206A401C2062281EA5F101052A
:10138000DCDC07E0D4E9012118F8010B9047206A62
:10139000401C2062381EA7F10107F3DC2046FFF74E
:1013A000BEF9032011B041E62DE9F04F04460D4689
:1013B000D21D22F0070089B0D0E90097484639468F
:1013C00003F035FE0246F80F01D02D2307E0206818
:1013D000810701D52B2302E0202101EAC0038DF80B
:1013E00020300BB1012000E00020032A824601D00A
:1013F000072A04DB2946204600F038FA3FE120782E
:10140000800601D40D2500E0E569C7F30A560D2DCD
:1014100049DA00214FEA175B08464FF00000002F21
:1014200000F4400007DA00EB80004FF4400100EBCD
:10143000D07001EA60008115012901DD4FF0FF3114
:1014400000224FEA850CBCF1180F06D31346ACF10D
:1014500018004FF08052C24003E04FF4801323FA8B
:101460000CF30CF10C0CBCF1200F04D3ACF1200CEC
:1014700009FA0CF001E007FA0CF000294FF00048DF
:1014800001DD18B90FE00ED140450CD319EB02096C
:101490005F4121B9404502D19F4329EA0209BBEBD4
:1014A000175F00D0761C2088000502D57B48784461
:1014B00002E07A487844193808AA302302F80A3042
:1014C000037C0AF10101002E0AF1020A53546A4614
:1014D00002DC4FF0300101E04FF031014FF0010824
:1014E0008DF8001002D0A6F2FF3603E059EA47015A
:1014F00000D06B4E002D02DC2178090704D54FF097
:1015000002082E218DF80110C44600210BE0C7F31C
:1015100003433F01C35C491C6D1E02F808300529D6
:1015200008F1010801DA002DF1DC00210CE000EBEC
:101530001973491C1B786D1E082902F808304FEA00
:10154000091908F1010801DA002DF0DC21688B0689
:1015500002D516E0A8F10108E04505DD02EB08031D
:1015600013F8013C302BF5D0B8F1000F09DD02EB88
:10157000080313F8013C2E2B03D1090701D4A8F16D
:101580000108002D05DD3E2102F808106D1E08F14E
:101590000108407C002E02F8080008F1010804DA76
:1015A0002D20764202F8080002E02B2002F8080005
:1015B0000A214FF47A70864208F101080BDB96FB92
:1015C000F0F3303302F8083096FBF0F308F101082D
:1015D00000FB136601E0642E0CDB642096FBF0F345
:1015E000303302F8083096FBF0F308F1010800FBF5
:1015F000136601E00A2E06DB96FBF1F0303002F8AC
:10160000080008F1010896FBF1F001FB1060303092
:1016100002F80800A16908F1010808EB050202EBD5
:101620000A00081AA0612078C00602D42046FFF7FD
:1016300060F8216A08AE01EB0A00206204E0D4E9F8
:10164000012116F8010B9047BAF1010AF7D2207870
:10165000C00602D52046FFF74CF86E4609E016F8A2
:10166000010B3E280FD0D4E901219047206A401C8D
:101670002062B8F10108F2D22046FFF750F809B015
:101680000320BDE8F08F206A2844206203E0D4E9FB
:101690000121302090476D1EEBD3F8E76A5F000010
:1016A00002FCFFFF10B5436913B1AFF3008001E006
:1016B000FFF758F8012010BD127800F124010A70DC
:1016C00000224A700122EDE711684FF0FF32E9E78E
:1016D00010B5436913B1AFF3008001E0FFF7E2F802
:1016E000012010BD128800F1240182840022C284EE
:1016F0000122EDE711684FF0FF32E9E7426842B19D
:10170000016811F8013B23B1521EC0E900121846CE
:1017100070470121C160881E704742685AB1C36892
:10172000016843B983688B4205D0491E521CC0E949
:101730000012002070474FF0FF3070472DE9F05F36
:10174000824615468B4600270AF10104B946007807
:10175000302801D09DB113E014F8010B012778283F
:1017600003D0582801D045B10AE00DB1102D07D1A2
:10177000002714F8010B102502E0082500E00A25D7
:101780000026B0460EE005FB080005FB06F1012728
:101790001FFA80F801EB1046B6F5803F00D3B9463A
:1017A00014F8010B294600F0A1F80028EBDABBF190
:1017B000000F05D00FB1641E00E05446CBF8004086
:1017C000B9F1000F06D0FEF785FF02210160C81EA7
:1017D000BDE8F09F48EA0640FAE770B516460C46A9
:1017E0000546FFF723FB036893F80101012806D0A3
:1017F000FF2C0FD8185D68B101202C7070BDD3F894
:1018000007013246214603F2071303442846BDE888
:10181000704018474FF0FF3070BD7546FFF702FB70
:10182000AE4605006946534620F00700854618B0CD
:1018300020B5FEF7BDFDBDE820404FF000064FF09B
:1018400000074FF000084FF0000B21F00701AC46F5
:10185000ACE8C009ACE8C009ACE8C009ACE8C00914
:101860008D46704700487047184E00202DE9F04122
:101870001F46044603260168072A01F4006004DBC2
:1018800008B116A505E016A503E008B115A500E00E
:1018900015A521F010002060A069C01EA0610FB145
:1018A000401EA0612046FEF724FF4FB1D4E901217C
:1018B00038469047206A401C2062C01C206206E027
:1018C000206AFAE7D4E9012115F8010B9047761E4A
:1018D000F8D22046FEF723FFBDE8F0814E414E00CE
:1018E0006E616E00494E4600696E66003A2800D26D
:1018F000303820F02002412A01D3A2F1370088427B
:1019000001D34FF0FF3070472DE9FF4F06468BB0F3
:101910000878FF2806D0491C2D2805D000244FF058
:10192000000908E000200CE00124F8E709EB890336
:10193000491C00EB43090878FF28F7D114B1C9F11D
:1019400000008146107800252C46AA4629462D28FD
:1019500001D02B2804D1521C2D2813D00020824600
:101960008B461078FF280FD04FF0000C0A21521C34
:10197000A5FB017804FB018105FB0C11C5194BEB9C
:101980000104EEE70120EAE7002108464FF00000DD
:10199000BAF1000F02D000EB80004008C0F381577D
:1019A000012F01DD4FF0FF370E9955EA040009EBD6
:1019B00001080BD04FF0020918F5FA7F16DA4FEA4A
:1019C000CA70002F706008DD012007E04FEACA707E
:1019D000C6E900B00FB0BDE8F08F00203060FEF720
:1019E00079FEC0F800901821084616E0B8F5FA7F95
:1019F00018DD002F02DAF748784401E0F648784411
:101A0000D0E90010C6E9001040EACA707060FEF725
:101A100061FEC0F80090142108460FB0BDE8F04FF9
:101A200005F01DBC002108464FF00000B8F1000190
:101A3000099002DAC7F1000200E03A4601DAC8F183
:101A4000000106A800F0DCF906AB93E8070003AB41
:101A500083E8070044F23E005BEA04010090584628
:101A600004D144F21E012C465D460091210C09046C
:101A7000014306D10099240444EA15442D04103989
:101A8000009104F07F41014306D10099240244EA09
:101A900015642D020839009104F07041014306D10C
:101AA0000099240144EA15742D01091F009104F0E6
:101AB0004041014306D10099A40044EA9574AD0069
:101AC000891E009104F00041084304D100986D196B
:101AD0006441401E00904FF001033A466846B8F159
:101AE000000FCDE9014503A902DD00F046FF01E04A
:101AF00000F019FFBAF1000F04460D4601D084F042
:101B00000044002108464FF00000099940F2FF7799
:101B1000484010F00C0F07D124F00040284303D0B8
:101B2000C4F30A50B84212D1FEF7D4FDC0F80090B9
:101B3000C4F30A50B8420AD1A8487844D0E900104A
:101B4000C6E9001004F000410843706042E7C6E9AE
:101B500000543FE72DE9FF4F1F464FF0000A4FF0BA
:101B6000FF38454691B0D7E90146CDF83CA0FFF7D4
:101B700079FEC0680168405C1090B96912986D1CCC
:101B80008847396A814688470028F6D1B9F1FF3F76
:101B90000AD0002E24F4D06411DDB9F12B0F08D047
:101BA000B9F12D0F0BD102E0404615B013E744F414
:101BB0008064B96912986D1C8847761E814660055D
:101BC00004A901D52D2000E02B20002E01F1010BEE
:101BD0000DF130088DF810003FDDB9F1690F08D024
:101BE000B9F1490F05D0B9F16E0F02D0B9F14E0F1E
:101BF0001CD13B4601A8009580E85002DDE9121295
:101C00006FF0020005F096FBC11CCED10EE0B96961
:101C100012986D1C884781461398761E44F4007410
:101C200005600F98401C002E0F9016DDB9F1300FA3
:101C3000EDD0B9F1780F02D0B9F1580F0DD10F984E
:101C400001280AD13B46CDE90054DDE91212001FFC
:101C5000029605F06DFBC11CA7D1109989453ED1B4
:101C600044F0800406E01399681CAAF1010A44F4C8
:101C700000740860B9696D1C1298761E8847302878
:101C80008146F0D02BE01099894505D1200603D478
:101C9000761E44F0800418E0484603F024FB08B3A5
:101CA000761E0DF123018B4544F4007408D2A9F18E
:101CB00030000BF8010B200607D5AAF1010003E064
:101CC000200602D40AF101008246A00502D513992C
:101CD000681C0860B96912986D1C88478146002EFF
:101CE000D1DC53E0002E51DDB9F1650F02D0B9F11E
:101CF000450F4BD1A00549D5B9696D1C1298761EC8
:101D000024F440748847002E81460CDD2B2804D033
:101D1000B9F12D0F07D144F48074B96912986D1C84
:101D20008847761E8146E00501D52D2100E02B2154
:101D300008F8011BCDF8008021E0761E0DF1390175
:101D4000884544F400740CD2A9F1300010F0FF0073
:101D500088F8000002D10099884509D908F10108E6
:101D600006E0E00501D51E4801E042F20F70824610
:101D7000B96912986D1C8847814613980560002E3A
:101D800004DD484603F0AFFA0028D6D1F96912986D
:101D90008847FF2053468BF8000088F80000002099
:101DA0000A900B9004AA0CA90AA8FFF7ADFDA005A4
:101DB00002D46FF00100F8E614F0240F12D0E0070F
:101DC0001CD13868DDE90A12031D3B600068C0E9D8
:101DD000001213E0085B0000FA5A0000BE59000030
:101DE000F1D8FFFF0AA9684603F06AFAE00705D1B7
:101DF0003868009A011D3960006802602846D4E600
:101E00002DE9F047814616468AB0354878440DC81A
:101E10008DE80D0032487844801C03AC0DC884E87E
:101E20000D0041F69B300844372190FBF1F290FB06
:101E3000F1F5A5F1800501FB12041B3C02D56442BB
:101E4000012000E00020DFF898A080460027FA4437
:101E5000AAF1BE0A0EE0E0070AD03246684607EB58
:101E6000470101230AEB810100F072FD8DE80700B4
:101E700064107F1C002CEED1194F7F44AE3F19E057
:101E8000E80715D007EB04100DF1180A90E80E00D2
:101E90008AE80E00C068F04201D1981908903246D5
:101EA000012306A903A800F053FD03AB83E8070054
:101EB0006D10641C002DE3D14FF0010332466946DA
:101EC000B8F1000F03A802D000F018FD01E000F007
:101ED0003FFDC9E90001C9F808200AB0BDE8F08754
:101EE0009C56000010B50446AFF300802046BDE8C4
:101EF0001040FEF7E8B9000001491820ABBEFEE72C
:101F0000260002002DE9FF4F1F464FF03C0987B025
:101F10004FF00042DDE9141001F10108DDF858A08E
:101F200002EA40500390002005908346054604468F
:101F30000490B969461E08988847AAF1010A0290E0
:101F4000BAF1000F3BDD02982E2815D01021FFF7C3
:101F5000CDFC00282EDB4FF0010B0599014317D073
:101F6000B9F1000F0BDB4A46C11700F0F6F9054343
:101F70000C43A9F1040905E0012004900BE008B12D
:101F800045F0010501200590049820B9361D02E0B6
:101F9000049800B1361FB969089808F1010888470C
:101FA000BBF1000FAAF1010A0290C9D00999C1F84A
:101FB0000080C5E70298702808D0502806D0F9693B
:101FC00008988847BBF1000F14D04FE00020029022
:101FD0000120BBF1000F049009D0B969089808F1FD
:101FE00001088847AAF10109B9F1000F07DCF96976
:101FF000089888476FF001000BB0BDE8F08F2B28E0
:1020000004D02D280CD14FF0FF300490B969089806
:1020100008F101088847A9F10109B9F1000FE6DDCF
:10202000411CE4D00A21FFF761FC0028DFDB0299A4
:1020300008F1010801EB810100EB41000290B96950
:10204000089888470A21FFF751FC099AA9F101096C
:10205000B9F1000FC2F8008001DD0028E7DAF96964
:10206000089888470499029800FB016655EA040025
:1020700004D004F04041090002D006E0039898E043
:10208000A40044EA9574AD00B61E04F000410800B7
:1020900002D16D196441761E159810F0240F03D0FB
:1020A0004FF00B095C4803E04FF028096FF07D000A
:1020B0008246564507DAAAEB06018944B9F1410F79
:1020C00001DD4FF0410901200021A9F1010200F0DA
:1020D00044F9024628400B462140084301D0012123
:1020E00000E00021501E029143F1FF3128402140C1
:1020F000084301D0012000E000200299834651EA04
:102100000B014FD0002108464FF00000039900F466
:10211000400039B100EB80004FF4400100EBD0707B
:1021200001EA60008015012802DD4FF0FF3000E079
:1021300013D0401C36D0029860B3BBF1000F0CD115
:102140004A460120002100F008F9284021400843B8
:1021500001D0012000E00020E0B101204A4600212A
:1021600000F0FBF8034640190A4661412D1A8C41E4
:1021700011D3B9F1400F09DD159810F0240F02D0EA
:10218000AAF1340603E0AAF1170600E0761C002548
:102190004FF0004406E05B1E42F1FF3220EA0305E7
:1021A00021EA0204CAF10100B04206DA1B49039891
:1021B00008430190002000900EE0039AC4F3D3215D
:1021C000E80A0A43164940EA44500A433146CDE939
:1021D0000002684603F07DF8159810F0240F0BD02C
:1021E0001598C00715D13868DDE90012031D3B6062
:1021F0000068C0E900120CE002A8694603F060F82C
:102200001598C00705D13868029A011D3960006829
:1022100002604046F0E6000002FCFFFF0000F07F95
:102220000000F03F2DE9FF4F92461D4685B04FF06C
:102230000041DDE9124BDDE914727F1E01EA4B50CB
:10224000414940F0FF4940EA0108002122F0200006
:102250004928049102D04E2828D04CE03BA001260A
:1022600007C88DE80700A9690698641C88477F1E87
:10227000014606D41DF8060018B121F02001814264
:102280000BD0E96906988847032E34D0082E32D047
:102290006FF0010009B0BDE8F08F761C032E01D06D
:1022A000082EE0D1601CCAF80000DCE7A969069896
:1022B000641C88477F1E2AD420F02000412826D1A4
:1022C000A9690698641C88477F1E20D420F020004E
:1022D0004E281CD1A9690698641C88477F1E48F4C3
:1022E000002849F48009CAF8004001D4282806D003
:1022F000E969069888475FEACB7012D022E0A969A5
:102300000698641C88477F1E01D4002803DAE96917
:1023100006988847BCE72928F1D1641CCAF8004018
:10232000E9E71BF0240F07D028680499031D2B60F0
:102330000068C0E9001805E02868021D2A600068EE
:10234000C0F800902046A5E70000F07F494E4649BE
:102350004E495459000000007047B2F120030AD5DD
:10236000C2F1200301FA02F120FA03F300FA02F0AD
:1023700041EA0301704700FA03F14FF00000704793
:102380005FEA400C08BF91F0000F4FEA8C234FEA40
:10239000C12243EA51514FEA1C5018BF00F5F040EA
:1023A0004FEA300018BF41F000415FEA6C5C00F07A
:1023B0002980BCF1FF3F08BF40F080407047130CFC
:1023C00006BF12044FF0100C4FF0000C130E04BFA8
:1023D00012020CF1080C130F04BF12010CF1040CD3
:1023E000930F04BF92000CF1020CD30F04BF5200F4
:1023F0000CF1010C11464FF00002A0F11F00A0EB00
:102400000C00704711F0004F08BF704731F00041D9
:102410003FF4D5AF0B0C06BF09044FF0100C4FF082
:10242000000C0B0E04BF09020CF1080C0B0F04BFCB
:1024300009010CF1040C8B0F04BF89000CF1020C94
:10244000CB0F04BF49000CF1010CCCF12003A0EB31
:102450000C0022FA03F302FA0CF241EA030100F144
:102460000100704720F07F4C80EA030023F07F4793
:10247000ACEB070303F57C5300F0004003F1FF03CE
:102480002DE980494FEA154B09B44FEA144325EA78
:102490000B4E24EA03480FF2042606EB13274908E3
:1024A0003E785FEA320203FB0667C7F5000707FBC9
:1024B00006F64FEA54374FEAD64606F1020607FB06
:1024C000066CCCF1005C4FEA1C472CEA074C07FB7A
:1024D00006F40CFB06F504EB15464FEA961634BFDE
:1024E00000204FF000404FEAD13706FB07FC4FEACF
:1024F0001C4C0CFB0BF7D21B03FB0CF761EB070129
:102500000CFB0EF7B0EB074072EB17420CFB08F721
:1025100034BFA2EB0742B2EB074261EB17414FEA2F
:102520000C444FEA910706FB07FC4FEA1C4C0CFBDE
:102530000BF7B0EBC74072EB573203FB0CF734BF1D
:10254000A2EBC742B2EBC74261EB57310CFB0EF76F
:10255000B0EBC70072EB57720CFB08F734BFA2EB6D
:10256000C702B2EBC70261EB5771039F4FEA81616B
:1025700041EA921104EBCC044FEAD1374FEA826270
:1025800006FB07FC42EA90124FEA80604FEA1C4CBF
:102590000CFB0BF7D21B03FB0CF761EB07010CFBE9
:1025A0000EF7B0EB074072EB17420CFB08F734BF95
:1025B000A2EB0742B2EB074261EB17414FEA8C55A1
:1025C0004FEA910704EB9C2406FB07FC4FEA1C4CE6
:1025D0000CFB0BF7B0EBC74072EB573203FB0CF769
:1025E00034BFA2EBC742B2EBC74261EB57310CFBE1
:1025F0000EF7B0EBC70072EB57720CFB08F734BF55
:10260000A2EBC702B2EBC70261EB577115EB4C2589
:102610004FEA816141EA92114FEA82624FEAD13773
:1026200042EA901206FB07FC44F100044FEA806086
:102630004FEA1C4C0CFB0BF7D21B03FB0CF761EBB6
:1026400007010CFB0EF7B0EB074072EB17420CFBD7
:1026500008F734BFA2EB0742B2EB074261EB174128
:1026600015EB1C154FEA813141EA92414FEA823263
:1026700042EA90424FEA80304FEA0C7644F100047F
:1026800048EA03434EEA0B484FF0000EB2EB080C49
:1026900071EB030724BF624639464EEB0E0E4FF036
:1026A000000B0018524149414BEB0B0BB2EB080CED
:1026B00071EB03077BF1000B24BF624639464EEBFA
:1026C0000E0E4FF0000B0018524149414BEB0B0B23
:1026D000B2EB080C71EB03077BF1000B24BF6246E1
:1026E00039464EEB0E0E51EA020718BF46F00106BE
:1026F00016EB0E7655F1000254F1000103D5BDE84A
:102700008901BDE80088BDE88901BDE80048B61927
:10271000524141EB0101A3F10103704780807F7EAC
:102720007D7C7B7A79787776767574737271717047
:102730006F6E6E6D6C6C6B6A6A69686867666665F9
:102740006464636362616160605F5F5E5E5D5D5C87
:102750005C5B5B5A5A5959585857575656555555F8
:102760005454535352525251515050504F4F4F4E58
:102770004E4D4D4D4C4C4C4B4B4B4A4A4A494949A6
:1027800048484847474747464646454545444444E8
:1027900044434343434242424241414146EA0646A2
:1027A000A3F570534FEA164646EA42564FEAD22244
:1027B00042EA415210B54FEAD121A3F1010300F0E2
:1027C0002FF820F0004000F1020C00F0004701EB70
:1027D00000501146BCF5006F40EA070000D210BD62
:1027E000BAF1000F0AD01CB503B44FF004004FF04B
:1027F00004014FF000000FBCBDE810404FF0000195
:10280000BBF1010FB9BF04484FF0FF31034800216D
:1028100040EA070010BD00BFFFFFEF7F0000F07F20
:10282000002B9C4630D477002BD01CB54FEA3707DD
:1028300003B44FF010004FF01001BAF1000F06D0B2
:10284000BCF1000FDCBF40F0080040F008014FF081
:1028500000000FBCBDE810400BF1010BBBF1010FF4
:1028600008BF5FEA170722BF12F1010211F101014F
:102870004FF0004143F1000300F0004043EA000044
:102880007047F9D35708D0E746EA064613F1400FE0
:102890004FEA16461FDD13F1200FDFBF16430A462D
:1028A000002120335B42BED0C3F1200746EA064632
:1028B00002FA07F74FEA164646EA0706C3F1200771
:1028C00022FA03F201FA07F721FA03F14FF00003AD
:1028D00042EA0702A7E746EA020646EA06464FEA48
:1028E000164646EA0106BCBF46EA0646360C4FF0DD
:1028F00000034FF000024FF0000194E72DE9804CF7
:102900009A46934670B491E8380007C831EA400C03
:1029100048BF34EA430C03D5FFF7A4FDFFF780FF5F
:10292000F0BCBDE8008C2DE9804C9A46934670B40B
:1029300091E8380007C831EA400C48BF34EA430C3C
:1029400003D5FFF78FFDFFF729FFF0BCBDE8008C32
:102950002DE9804C9A46934670B491E8380007C838
:1029600010F0804F08BF13F0804F03D100F01AF829
:10297000FFF756FFF0BCBDE8008C2DE9804C9A466D
:10298000934670B491E8380007C810F0804F08BF34
:1029900013F0804F03D100F005F8FFF7FFFEF0BC05
:1029A000BDE8008C20F07F4780EA030023F07F4CD5
:1029B00007EB0C03A3F57C5300F00040A3F1FE03EA
:1029C00092F0000F00F0B38095F0000F00F07780D8
:1029D0002DE901494FEA11404FEA144621EA004827
:1029E00000FB06FC24EA064708FB06F607FB08F88E
:1029F00000FB07F718EB06484CEB164C4FEA124B5E
:102A000018EB07484FEA15464CEB174022EA0B4EED
:102A10000BFB06FC25EA06470EFB06F607FB0EFE3F
:102A20000BFB07F71EEB064E4CEB164C4FF0000667
:102A30001EEB074E4CEB174B18EB0B0840F1000058
:102A400018EB0E0B58EB000840F100008F1A4FF006
:102A500000013CBFC943661B14BFB5EB040C002149
:102A60003CBFC943F61B4FEA17444EEA8E0E27EAD5
:102A700004454FEA1C4704FB07622CEA074C05FBA0
:102A800007F70CFB05F604FB0CFC16EB074642EBC4
:102A9000174216EB0C4642EB1C421BEB060658EBAA
:102AA0000202414146EA9E0601D5BDE80189B619F8
:102AB000524141EB0101A3F10103BDE801894FEA55
:102AC00014454FEA114724EA054621EA074C05FB65
:102AD00007F406FB07F70CFB06F105FB0CFC11EBFA
:102AE000074144EB17444FEA124711EB0C4144EB0A
:102AF0001C4422EA074C05FB07F206FB07F70CFB18
:102B000006F605FB0CFC16EB074642EB174216EBEC
:102B10000C4642EB1C456A1854F1000148BF70474F
:102B2000B619524141EB0101A3F10103704795F041
:102B3000000F37D04FEA11424FEA144721EA02460C
:102B400024EA074C02FB07F106FB07F70CFB06F42F
:102B500002FB0CFC14EB074441EB17414FEA15470D
:102B600014EB0C4441EB1C4125EA074C02FB07F532
:102B700006FB07F70CFB06F602FB0CFC16EB074600
:102B800045EB174516EB0C4645EB1C42121951F16B
:102B9000000148BF7047B619524141EB0101A3F152
:102BA000010370474FEA14454FEA114724EA0546EE
:102BB00021EA074C05FB07F106FB07F70CFB06F2C1
:102BC0004FF0000605FB0CFC12EB074241EB1741EE
:102BD00012EB0C4251EB1C4148BF7047921841EB7D
:102BE0000101A3F101037047FEE770472DE9F041B1
:102BF0000446876D00F054F9064694F83500002528
:102C0000022806D08020606584F834500120BDE899
:102C1000F0812068016821F0160101602068416997
:102C200021F080014161206C08B9A06C20B12068BE
:102C3000016821F0080101602068016821F00101AC
:102C400001600CE000F02CF9801B052807D920203A
:102C50006065032084F8350084F83450D7E7206895
:102C60000068C007EED194F85C103F208840B8603F
:102C7000012084F8350084F834500020C7E790F82C
:102C80003510022903D080214165012070470521BC
:102C900080F835100068016821F001010160002012
:102CA000704700002DE9F84FDFF8BCA10022012594
:102CB00003264FF00F090AF1040BAAF1040E00BF1E
:102CC0000B6805FA02F42340A34270D10F7907F094
:102CD0000307012F01D0022F16D187684FEA42085F
:102CE00006FA08FC27EA0C07D1F80CC00CFA08FC1D
:102CF0004CEA070CC0F808C04768A7430C79C4F336
:102D0000001494403C4344600C79E443A4070AD087
:102D1000C4684FEA420C06FA0CF7BC438F6807FA06
:102D20000CF72743C7600C7904F00304022C12D17E
:102D3000D40800EB840CDCF820405707FF0E09FA9A
:102D400007F824EA0804D1F8108008FA07F848EADE
:102D50000408CCF8208004684FEA420C06FA0CF70D
:102D6000BC430F7907F0030707FA0CF72743076006
:102D70004C6814F4403F70D03C4C276847F48047BF
:102D80002760246822F0030704F480440094384C40
:102D900007EB040CDCF8084897074FEA177809FAA4
:102DA00008F7BC43334FB84202D1002724E054E077
:102DB000314FB84201D101271EE0304FB84201D156
:102DC000022719E02E4FB84201D1032714E02D4FFE
:102DD000B84201D104270FE02B4FB84201D105279B
:102DE0000AE02A4FB84201D1062705E0284FB84231
:102DF00001D1072700E0082707FA08F72743CCF896
:102E00000878DAF800405746D1F804C09C435FEADE
:102E1000CC2C00D51C433C60DBF800405F46D1F869
:102E200004C09C435FEA8C2C00D51C433C60DEF858
:102E300000407746D1F804C09C435FEA8C3C00D543
:102E40001C433C60084F083F3C68D1F804C09C43D9
:102E50005FEACC3C00D51C433C60521C102AFFF4B6
:102E60002FAFBDE8F88F0000083C01404438024015
:102E7000003001400000024000040240000802400F
:102E8000000C0240001002400014024000180240F2
:102E9000001C02400AB1816170470904FBE7000091
:102EA00001488068704700002000002002488168C7
:102EB0000278114481607047200000200B4810B553
:102EC000016841F400710160016841F480610160B2
:102ED000016841F480710160032000F09FF80F2029
:102EE00000F006F800F050F8002010BD003C024051
:102EF00030B505461F4887B00024016841F4807151
:102F00000160006806A900F48070009001A800F03C
:102F100039F90498A8B100F055F940001649174A4C
:102F2000B0FBF1F11648491E026040F2E732C0E9F9
:102F30000324C0E90114846100F0C2FB040003D043
:102F400015E000F03FF9E9E70D4800F027FC040028
:102F50000DD12D2000F034F8102D07D20022294683
:102F60002D2000F03BF80748056000E0012407B081
:102F7000204630BD4038024040420F000020004053
:102F8000DC040020240000200C4882B0016841F4D9
:102F900080410160006800F4804000900748001FF5
:102FA000016841F0805101600068002200F080500B
:102FB00000900F21901E02B000F010B8443802407B
:102FC000002809DB00F01F02012191404009800028
:102FD00000F1E020C0F8001170470000F0B40E4B83
:102FE0001B680C46C3F30223C3F10705042D00D967
:102FF0000425191D072901D2002300E0DB1E01264C
:1030000006FA05F1491E214099409E40761E164061
:103010003143F0BC02F023B80CED00E0064900F0AB
:10302000070208684FF6FF03184040EA0220034AEF
:1030300010430860704700000CED00E00000FA0546
:10304000704700002DE9F0470E46050065D0DFF817
:103050001481D8F80000F7B200F00700B04207D2A0
:1030600088F80070D8F8000000F00700B04254D192
:1030700028683D4C810712D5400703D5206840F4ED
:10308000E05020602878000703D5206840F46040B5
:1030900020602068A96820F0F000084320602878AC
:1030A000C0072DD0304968680839012812D002289D
:1030B00013D0032811D00968890700292DDA216867
:1030C00021F0030101432160FFF7EAFE814641F24E
:1030D000883A0EE009688903EFE709688901ECE79F
:1030E000FFF7DEFEA0EB0901514502D90320BDE840
:1030F000F0872068696800F00C00B0EB810FEFD119
:10310000D8F80010404601F00701B14207D9077016
:10311000006800F00700B04201D00120E7E72878FE
:10312000400705D52068E96820F4E0500843206096
:103130002878000706D52068296920F4604040EA15
:10314000C100206000F05EF82168084AC1F3031155
:10315000515CC8400649086006480068FFF7C8FE91
:103160000020C4E7003C024008380240B073000869
:103170002C0000202400002001490120C864704771
:10318000000047420F2202600C4A136803F0030359
:103190004360136803F0F0038360136803F4E053A3
:1031A000C36012684FF4E05303EAD202026104489C
:1031B000006800F00700086070470000083802400F
:1031C000003C02400448054900680968044AC1F30C
:1031D0008221515CC84070472C0000200838024012
:1031E000C07300080448054900680968044AC1F32F
:1031F0004231515CC84070472C0000200838024022
:10320000C0730008104810B5006810F00C010F489A
:1032100018D0042916D0082914D10B4C241F21687A
:1032200001F03F02216821680023C1F38811A1FB4E
:103230000001FDF7CFF82168C1F30141491C4900A5
:10324000B0FBF1F010BD0000083802400024F4008B
:10325000054810B50068000605D5FFF7F1FE0249E4
:103260008020891C087010BD0C3802402DE9F84FF1
:1032700004006ED02078DFF84C93C007A9F1040554
:103280004AD009F104000168C1F38101012908D085
:103290000068C0F3810002280AD1D9F8000040027A
:1032A00006D52868800337D560680028E1D033E070
:1032B0006068B0F5803F10D0B0F5A02F286810D01E
:1032C00020F480302860286820F48020286060681E
:1032D000A8B1FFF7E5FD06460DE0286840F4803010
:1032E000F4E740F480202860F7E700BFFFF7D8FD3F
:1032F000801B642873D828688003F7D50CE0FFF79B
:10330000CFFD064605E000BFFFF7CAFD801B64281D
:10331000F0D828688003F7D42078DFF8AC828007E3
:103320004FF0000A3ED5A748001D016811F00C0FB0
:1033300008D00068C0F3810002280BD1D9F8000042
:10334000400207D42868800716D5E068012800D11C
:1033500012E033E1E068B8B10120C8F80000FFF7DF
:103360009FFD064605E000BFFFF79AFD801B02287F
:10337000C0D828688007F7D52868216920F0F800B0
:1033800040EAC10028600DE0C8F800A0FFF788FD02
:10339000064604E0FFF784FD801B02281FD828683A
:1033A0008007F7D42078000722D5864F87486169C7
:1033B000703771B101210160FFF772FD064604E02C
:1033C000FFF76EFD801B022809D838688007F7D503
:1033D0000EE0C0F800A0FFF763FD064605E082E0BE
:1033E000FFF75EFD801B02287DD838688007F7D480
:1033F0002078400768D5DFF8CCB100270BF13C0BF3
:10340000DBF80000C0000BD4DBF8001041F0805165
:10341000CBF80010DBF80000012700F0805000908E
:103420006B4E3068C00510D4306840F48070306056
:10343000FFF736FD009005E0FFF732FD0099401AD6
:10344000022850D83068C005F6D55E4EA0686C36AC
:1034500001280FD00528306810D020F0010030601E
:10346000306820F004003060A068B8B1FFF718FDA4
:1034700000900FE0306840F00100F4E740F00400F5
:103480003060F7E7FFF70CFD0099411A41F28830F0
:10349000814266D830688007F4D50EE0FFF700FD62
:1034A000009007E0FFF7FCFC0099411A41F28830D8
:1034B000814256D830688007F4D42FB1DBF8001071
:1034C00021F08051CBF80010A069C8B33D49091D17
:1034D0000968C1F3810102294AD00228504607D069
:1034E000C8F8600000E03CE0FFF7DAFC04463BE08F
:1034F0004746C8F86000FFF7D3FC064605E000BF6A
:10350000FFF7CEFC801B02282BD828688001F7D457
:10351000D4E907010843A16A2E4A490802EB014198
:10352000626A41EA8211084394F82C1040EA016172
:10353000C9F8001001203866FFF7B2FC044606E027
:103540003EE000BFFFF7ACFC001B022809D828684A
:103550008001F7D534E000BFFFF7A2FC001B022872
:1035600002D90320BDE8F88F28688001F4D427E051
:103570000128F7D0D9F80000E26900F480019142F7
:103580001CD1226A00F03F01914217D147F6C07169
:10359000626A0140B1EB821F10D1A26A4FF0FF3383
:1035A00000F4403103EB5202B1EB024F06D194F824
:1035B0002C1000F07060B0EB016F01D00120D1E75A
:1035C0000020CFE70438024000004742800E474207
:1035D000007000400000FFFF7047704710B590F882
:1035E0003C20012A22D0012280F83C20CA688C6845
:1035F00022F4407222434C6822F4806222430C6819
:1036000022F4006222430C6922F4805222434C6966
:1036100022F400522243C969002322F480420A4363
:1036200001684A6480F83C30002010BD022010BDC3
:1036300070B590F83C20012A32D0012480F83C403B
:10364000022280F83D2003685A689D6822F07006C7
:103650000A6832435A60134B02689A4214D0B2F19E
:10366000804F11D0104B9A420ED0104B9A420BD083
:103670000F4B9A4208D00F4B9A4205D00E4B9A42FC
:1036800002D00E4B9A4204D1496825F080031943B9
:10369000916080F83D40002180F83C10084670BDE4
:1036A000022070BD000001400004004000080040FE
:1036B000000C0040000401400040014000180040A0
:1036C00010B5040003D094F83D0010B107E00120CC
:1036D00010BD002084F83C00204600F01FF80220B6
:1036E00084F83D00211D206801F0BEF9012084F816
:1036F000460084F83E0084F83F0084F8400084F8D7
:10370000410084F8420084F8430084F8440084F8BF
:10371000450084F83D00002010BD000008B5016898
:103720001A48814209D11A48016841F0010101603B
:10373000006800F00100009008BD1548154A001F00
:1037400091420ED1016841F0200101600068002221
:1037500000F02000009006213720FFF73FFC3720C3
:1037600010E00D4A9142E7D1016841F0800101600B
:103770000068002200F08000009006212C20FFF756
:103780002DFC2C20BDE80840FFF71ABC00000140CA
:103790004438024000140040001C004090F83D10E6
:1037A000012901D001207047022180F83D100168F5
:1037B000CA6842F00102CA6000681149884214D008
:1037C000B0F1804F11D00F4988420ED00E49884287
:1037D0000BD00E49884208D00D49884205D00D49CA
:1037E000884202D00C49884204D1816801F0070167
:1037F000062903D0016841F00101016000207047F3
:10380000000001400004004000080040000C00409F
:1038100000040140004001400018004070B504461B
:1038200090F83C000025012817D0012684F83C6060
:10383000022084F83D002068826822F0770222F49A
:103840007F4282600868502838D00DDC20284FD095
:1038500005DC90B3102811D14AE0022070BD302859
:1038600046D040280AD13BE060282FD070280DD0E8
:10387000B0F5805F03D0B0F5005F12D0012584F869
:103880003D60002084F83C00284670BDCB68D1E93B
:103890000121206801F061F92068816841F0770119
:1038A00009E0CB68D1E90121206801F056F92068D0
:1038B000816841F480418160E1E719E0CA684968A4
:1038C000206801F01FFA5021206806E0CA684968A4
:1038D000206801F028FA6021206801F048F9CEE75D
:1038E000CA684968206801F00DFA40212068F4E7B1
:1038F000226801461046F0E72DE9F0410D4604002C
:1039000003D094F83D0018B108E00120BDE8F08133
:10391000002084F83C00204600F040F8022084F8A3
:103920003D002068816844F2070291438160211DB7
:10393000206801F099F8226890689169166A2B68EE
:10394000AF69034340F20330814341EA0721A8688D
:10395000EF6908434FF6FC418843E96840EA0720D5
:10396000014328692F6A000140EA0730084369686B
:103970006D6926F0AA0646EA051529439360226878
:10398000906154F8460B0162012004F81F09E075AC
:103990002076E0762077A0750020B7E7F0B587B0F5
:1039A000044614216846FCF72AFE32492368314A4E
:1039B00010390225012403262F48B3F1804F25D06A
:1039C0002E4FBB4220D1136843F0080313601268E6
:1039D00002F0080205920A6842F001020A600968D2
:1039E000CDE9006501F00101CDE90451CDE90246C0
:1039F0006946FFF757F9002206213220FFF7EEFA59
:103A00005FF03200FFF7DCFA07B0F0BD136843F057
:103A100001031360126802F0010205920A6842F085
:103A200001020A600A6802F0010205920A6842F087
:103A300002020A60096801F0020105914FF4004199
:103A40000091CDE90154CDE903646946FFF72AF9F5
:103A500008200090CDE90154CDE903646946084887
:103A6000FFF720F9002206211C20FFF7B7FA1C20DF
:103A7000C8E700004038024000000240000C00404F
:103A80000004024070B590F83E60044690F83F5044
:103A900090F8423090F84320022021B104290ED042
:103AA000012E1BD114E0012E18D1012B16D184F860
:103AB0003E0084F8420001220021206820E0012D10
:103AC0000CD1012A0AD184F83F0084F8430014E0A5
:103AD000012D03D1012B01D1012A01D0012070BD9C
:103AE00084F83E0084F83F0084F8420084F84300E4
:103AF00001220021206801F023F80122042120681E
:103B000001F01EF82068016841F001010160002009
:103B100070BD70472DE9F04104460068C66805692C
:103B20004FF00007A90713D5B10711D5F91E0161A0
:103B300001202077206880698007204602D0FFF7A7
:103B4000E8FF04E000F0A8F8204600F03AF92777F3
:103B5000680716D5700714D521686FF00400086156
:103B6000022020772068806910F4407F204602D030
:103B7000FFF7CFFF04E000F08FF8204600F021F9B6
:103B80002777280715D5300713D521686FF008006F
:103B90000861042020772068C0698007204602D091
:103BA000FFF7B7FF04E000F077F8204600F009F9CE
:103BB0002777E80616D5F00614D521686FF01000B7
:103BC0000861082020772068C06910F4407F2046F3
:103BD00002D0FFF79EFF04E000F05EF8204600F000
:103BE000F0F82777E80708D0F00706D021686FF0D3
:103BF00001000861204600F049F9280608D5300682
:103C000006D521686FF0800008612046FFF7E4FCCC
:103C1000680608D5700606D521686FF04000086177
:103C2000204600F0D1F9A8060AD5B00608D52168CB
:103C30006FF0200008612046BDE8F041FFF7CDBCE1
:103C4000BDE8F08110B586B0044614216846FCF743
:103C5000D6FC0E492068884216D10D480021026822
:103C600042F010020260006800F0100005904FF46E
:103C7000D44000900220CDE901010390012004907E
:103C800069460448FFF70EF806B010BD0000014079
:103C90003038024000100240704770B5044690F87A
:103CA0003C0000260D4601280FD0012084F83C007E
:103CB0006AB1042A1DD0082A2FD00C2A3FD0012631
:103CC000002084F83C00304670BD022070BD2068A2
:103CD00000F056FF2068816941F008018161206889
:103CE000816921F004018161206881692A69114399
:103CF00011E0206800F074FF2068816941F40061E0
:103D000081612068816921F4806181612068816915
:103D10002A6941EA02218161D2E7206800F096FF1A
:103D20002068C16941F00801C1612068C16921F0C2
:103D30000401C1612068C1692A69114311E020684A
:103D400000F0B8FF2068C16941F40061C1612068DA
:103D5000C16921F48061C1612068C1692A6941EAB1
:103D60000221C161ACE710B5040003D094F83D0016
:103D700010B107E0012010BD002084F83C0020466F
:103D800000F01EF8022084F83D00211D206800F09C
:103D90006BFE012084F8460084F83E0084F83F0062
:103DA00084F8400084F8410084F8420084F843001D
:103DB00084F8440084F8450084F83D00002010BDDC
:103DC0007047704710B50446022249B104290ED04D
:103DD000082913D094F84100012816D0012010BD05
:103DE00094F83E000128F9D184F83E200FE094F8C1
:103DF0003F000128F2D184F83F2008E094F8400009
:103E00000128EBD184F8402001E084F84120012210
:103E1000206800F095FE16492068164A884201D0B5
:103E2000904203D1436C43F40043436420688842CA
:103E300013D0B0F1804F10D00F4988420DD00F49F8
:103E400088420AD00E49884207D0904205D00D49D9
:103E5000884202D00C49884204D1816801F00701F0
:103E6000062903D0016841F001010160002010BD66
:103E70000000014000040140000400400008004030
:103E8000000C0040004001400018004010B50446FE
:103E900000680B49884201D1FFF708F809492068FA
:103EA000884204D12046BDE8104000F04DB80649D4
:103EB000884204D12046BDE8104000F007B810BD8C
:103EC0000020004000140040001C00402DE9F0419B
:103ED00000681A4988422ED1194C6088401C6080C5
:103EE0006088CF14174E4FF48058012809D1012261
:103EF00039463046FEF7CEFF012241463046FEF7F6
:103F0000C9FF0F4D2D1D28886188884204D10022E9
:103F100039463046FEF7BEFF68886188884204D182
:103F2000002241463046FEF7B5FF6088B0F5FA6FD3
:103F300001D300206080BDE8F0810000001C00403B
:103F4000000000200000024070B500681A49884255
:103F500030D11A480068426A184848380068416AF7
:103F600017480369D31A83604369CB1AC360836817
:103F700047F23054A34204DD8368A3F56A43613BF2
:103F8000836086680F4D4EF66123AE4202DA866882
:103F90001E448660C668A64204DDC468A4F56A446F
:103FA000613CC460C468AC4202DAC4682344C360A4
:103FB0000261416170BD00000014004060010020FA
:103FC00000000020D08AFFFF704770477047000054
:103FD000F8B5016804460868CA684B6910F00F0F0D
:103FE0004FF0000559D003F0010602F490773743F3
:103FF00065D0C10705D0D10503D5616C41F0010141
:104000006164410705D5D90703D0616C41F0020115
:104010006164810705D5D90703D0616C41F00401C3
:104020006164010707D502F02001314303D0616CC0
:1040300041F008016164616C00293AD0800604D522
:10404000900602D5204600F0AFFE20684069616C02
:10405000C0F38010090700D460B3204600F07DFE55
:1040600020684069400621D52068143050E8001FC0
:1040700021F0400140E80012002AF5D1E06BA8B120
:104080006E490165E06BFEF7FAFD002811D0E06B88
:10409000016D01B0BDE8F040084783060FD59306D7
:1040A0000DD52046BDE8F84000F07EBE2046FFF763
:1040B0008DFFF8BD2046FFF789FF6564F8BD266BCC
:1040C0002023012E7DD1C6067BD5D60679D508687A
:1040D0004868009048694FF00206400641D5E16B00
:1040E000086840680004000CE8D0A28D8242E5D93F
:1040F000E085C869B0F5807F2DD020680C3050E88D
:10410000001F21F4807140E80012002AF5D12068D8
:10411000143050E8001F21F0010140E80012002A8D
:10412000F5D12068143050E8001F21F0400140E82C
:104130000012002AF5D184F84230256320680C3043
:1041400050E8001F21F0100140E80012002AF5D1CC
:10415000E06BFEF74BFD6663A08DE18D401A81B2E6
:104160002AE0A08DE18D401A81B2E08D0028A5D013
:104170000029A3D022680C3252E8000F20F490707E
:1041800042E80007002FF5D12068143050E8002FD6
:1041900022F0010240E80027002FF5D184F84230D8
:1041A000256320680C3050E8002F22F0100240E810
:1041B0000023002BF5D166632046FFF706FFF8BD0C
:1041C000FFE705062BD5150629D594F841002128CF
:1041D000F5D1A068B0F5805F01D12069B0B1206A47
:1041E000411C2162216800784860E08C401E000478
:1041F000000CE084E3D12068C16821F08001C16037
:104200002068C16841F04001C160D8E7206A008899
:10421000C0F308004860206A801C2062E5E7400681
:10422000CDD55006CBD5CA68204622F04002CA60E0
:1042300084F8413000F0B8F9C1E700004B4D0008A8
:1042400070B5040004D094F84100002510B106E0D8
:10425000012070BD84F84050204600F023F824204F
:1042600084F841002068C16821F40051C1602046F3
:1042700000F0FCFD2068016921F490410161206893
:10428000416921F02A0141612068C16841F400516F
:10429000C1606564202084F8410084F842006563B1
:1042A000002070BD10B586B0044614216846FCF7A6
:1042B000A6F918492068884229D1174800210268C8
:1042C00042F010020260006800F0100005901248F1
:1042D0001438026842F001020260006800F0010038
:1042E00005904FF4C06000900220CDE90101032049
:1042F00003900720049069460848FEF7D3FC00228B
:1043000006212520FEF76AFE2520FEF759FE06B09D
:1043100010BD00000010014044380240000002407F
:1043200090F84230202B01D00220704721B11AB101
:104330000023036300F020BE0120704770B50068C1
:10434000494988427ED1494D494A28462978002664
:1043500040780D2907D00A2905D01F2860D21154B2
:10436000401C68705DE000285BD016543D21404839
:10437000FCF7CFF8040005D13A213D48FCF7C9F815
:1043800004006DD026703BA13948FCF75FF9B0B14D
:1043900039A13748FCF75AF948B338A13448FCF73B
:1043A00055F9002844D036A13148FCF74FF90028D0
:1043B0004BD02F4933A000BF01F08AFD30E0601CD4
:1043C00000F0DAFE51EC100B02F0DCFC01EE900A7A
:1043D0000020B0EE610A00F073FA11EE900A02F0CC
:1043E000C3FE41EC100B2CA053EC102B16E0601C0C
:1043F00000F0C2FE51EC100B02F0C4FC01EE900A7A
:104400000120B0EE610A00F05BFA11EE900A02F0B2
:10441000ABFE41EC100B26A053EC102B01F058FD25
:104420006E70BDE87040012210492748FFF778BF41
:10443000601CFCF761F804B22146002000F010FA7D
:10444000214600E00FE021A0B6E7601CFCF754F81D
:1044500004B22146012000F003FA21461FA0ABE779
:10446000034922A0A8E770BD001001400000002011
:10447000B000002053310000533200004D310000E5
:104480004D320000556E6B6E6F776E20636D643A2F
:104490002025730D0A000000536572766F31202DC0
:1044A0003E20252E3166206465670D0A000000005D
:1044B000536572766F32202D3E20252E31662064A2
:1044C00065670D0A00000000380200204D6F746F10
:1044D0007231202D3E2025640D0A00004D6F746F4F
:1044E0007232202D3E2025640D0A000042616420B6
:1044F000666D743A20257320287573652053313D0D
:104500003930290D0A0000002DE9F843044690F8DF
:104510004100984616460D46202802D00220BDE8EC
:10452000F88385B17EB100206064212084F84100C9
:10453000FEF7B6FCA6848146E684A0682027B0F585
:10454000805F02D003E00120E9E7206910B12E4628
:1045500000250EE000260CE08021204600F027FD1B
:10456000A8B9C6B116F8010B21684860E08C401E5E
:10457000E084E08C4B464FF00002CDF8008000282C
:10458000EAD14FF04001204600F011FD40B184F81F
:1045900041700320C3E735F8020BC0F30800E3E7DE
:1045A00084F841700020BAE77047FEE70A4C4FF4E8
:1045B00080664FF4FA75012231462046FEF76AFC08
:1045C000284600F0B5FF002231462046FEF762FC87
:1045D000284600F0ADFFEEE7001002402DE9F04163
:1045E00086B014216846FCF70AF8234800250168C4
:1045F00041F080010160016801F0800105910168CE
:1046000041F001010160016801F0010105910168BB
:1046100041F010010160016801F01001059101688D
:1046200041F0020101600068012200F00200134F16
:104630009402059021463846FEF72CFCDFF84080B6
:104640004FF4C056002231464046FEF723FC00944A
:104650000124694638460194CDE90245FEF722FB64
:104660000220CDE90250CDE9006469464046FEF7DC
:1046700019FB06B0BDE8F08130380240001002405E
:104680000000024010B596B000240F9410941194CD
:10469000129413941C2168461494FBF7B0FF202158
:1046A00007A8FBF7ACFF36483449016040F24731B8
:1046B000C0E9011440F2E731C0E903148021C0E9E8
:1046C0000541FEF7FDFF08B172B6FEE74FF48050DA
:1046D0000F900FA92A48FFF7A1F808B172B6FEE7BC
:1046E0002748FFF740FB08B172B6FEE7139413A901
:1046F00023481494FEF79CFF08B172B6FEE76020D1
:10470000CDE9000404200294CDE903400594002281
:1047100069461B480694FFF7C0FA08B172B6FEE777
:10472000042269461648FFF7B8FA08B172B6FEE7E8
:10473000082269461248FFF7B0FA08B172B6FEE7E0
:104740000C2269460E48FFF7A8FA08B172B6FEE7D8
:104750000794089409944FF400500A94CDE90B4053
:1047600007A907480E94FEF739FF08B172B6FEE7B5
:104770000348FFF767FA16B010BD000000000140C3
:10478000D000002010B58CB024216846FBF737FF1D
:104790000024164809944FF080410A94C0E900149F
:1047A0004EF66021C0E9024180210461816103204D
:1047B000CDE900040120CDE902040494CDE90540CF
:1047C0000794694609480894FFF796F808B172B64D
:1047D000FEE7099409A905480A94FEF729FF002875
:1047E00001D072B6FEE70CB010BD00001801002029
:1047F00010B58CB024216846FBF701FF0024164851
:10480000099414490A94C0E900144EF66021C0E9E5
:1048100002418021046181610320CDE9000401206F
:10482000CDE902040494CDE90540079469460A489D
:104830000894FFF761F808B172B6FEE7099409A978
:1048400005480A94FEF7F4FE002801D072B6FEE790
:104850000CB010BD000C004060010020FEE700001D
:1048600010B5B1F57A7F02DB40F2E73103E011F5D4
:104870007A7F00DC0E490F4A0024136838B1012802
:1048800004D100290EDBD9631068046410BD00292F
:1048900003DB59631068846310BD5C634842116890
:1048A000886310BDDC6348421168086410BD0000D5
:1048B00019FCFFFFD0000020FEF7CAFCFEE7000055
:1048C00001281FD8B5EEC00ADFED100A0E4AF1EE3E
:1048D00010FA02D29FED0E0A05E010EE101A914276
:1048E00001DDB0EE600A0D4A80EE201ADFED090A04
:1048F0009FED090A01EE200ABCEEC00A10EE101A64
:1049000022F81010704700000000344300003443C8
:10491000000000000000484300004842040000205E
:1049200007A001F0D5FA0B4C4FF4FA65E268A168D4
:1049300009A001F0CDFA284600F0FAFDF6E70000E4
:1049400046616D696C7920426F74205265616479AB
:10495000210D0A000000002045313D256C642045F2
:10496000323D256C640D0A0010B54FF0E02000695F
:1049700002F026F8012803D0BDE8104001F054BD34
:1049800010BD000030B593B030216846FBF737FE0C
:1049900014210CA8FBF733FE1E480025016841F0E6
:1049A00080510160006800F0805011901A48016841
:1049B00041F4804101600068022400F480401190BD
:1049C00001200090000401908001CDE906400820FC
:1049D0000890A820CDE9090404200B906846FEF752
:1049E00045FC08B172B6FEE70CA90F2081E8310042
:1049F0004FF4A0500F904FF48050109005210CA858
:104A0000FEF720FB08B172B6FEE7FEF7B5FB13B068
:104A100030BD00004038024000700040024801688C
:104A200041F470010160704788ED00E00148FFF734
:104A300071B80000180100200148FFF76BB80000B2
:104A4000600100200148FFF765B80000A8010020C0
:104A50000148FFF75FB80000DC0400200148FFF7C1
:104A600059B80000F0010020F0B50268294C2A4D29
:104A70002A4E2B4F2B4B4FF0804CA04209D0604563
:104A800007D0A84205D0B04203D0B84201D0984226
:104A900004D122F0700E4A6842EA0E02A0421BD0F6
:104AA000604519D0A84217D0B04215D0B84213D0F3
:104AB000984211D01C4DA8420ED01C4DA8420BD0DC
:104AC0001B4DA84208D01B4DA84205D01A4DA84244
:104AD00002D01A4DA84203D122F44075CA682A4375
:104AE0004D6922F080022A4302608A68C2620A6825
:104AF0008262A04201D0984201D10969016301217B
:104B000041610169C90703D0016921F00101016117
:104B1000F0BD00000000014000040040000800401B
:104B2000000C0040000401400040014000440140EE
:104B30000048014000180040001C004000200040D8
:104B400010B501F01F030121046A99408C430462EF
:104B5000016A9A401143016210BD10B5846842EAAF
:104B6000032224F47F440A432243826010BD8268FA
:104B700022F070020A4342F0070181607047000092
:104B8000F0B5036A026A22F0010202624268846997
:104B9000124E24F073050C682C4323F002058B6839
:104BA0002B430D4DA84201D0B04205D123F0080798
:104BB000CB683B4323F00403A84201D0B04205D1A7
:104BC0004D6922F4407215438A692A434260846128
:104BD000496841630362F0BD0000014000040140E8
:104BE000F0B5026A036A23F0100303624368846924
:104BF0000D6824F4E64444EA05248D6822F020027E
:104C000042EA05120F4D104EA84201D0B04206D123
:104C1000CF6822F0800242EA071222F04002A84246
:104C200001D0B04207D14D6923F4406343EA8503C4
:104C30008D6943EA85034360846149688163026248
:104C4000F0BD00000000014000040140F0B5026A20
:104C5000036A23F4807303624368C46922F4007218
:104C600024F073050C68124E2C438D6842EA05222D
:104C70000E4DA84201D0B04206D1CF6822F40062A6
:104C800042EA072222F48062A84201D0B04207D152
:104C90004D6923F4405343EA05138D6943EA051334
:104CA0004360C4614968C1630262F0BD0000014015
:104CB0000004014030B5046A026A22F480520262A4
:104CC0004268C3690D6823F4E64343EA05238D680F
:104CD00024F4005444EA0534084DA84202D0084D9B
:104CE000A84204D14D6922F4804242EA8512426012
:104CF000C36149680164046230BD000000000140E6
:104D00000004014010B5036A046A24F0010404623F
:104D1000846924F0F00444EA021423F00A020A43EE
:104D20008461026210BD10B5036A046A24F01004A5
:104D30000462846923F0A00324F4704444EA02323C
:104D400043EA01118261016210BD10B5806B002140
:104D5000C185C184FFF73AF910BD01680C3151E8F3
:104D6000002F22F4907241E80023002BF5D1016856
:104D7000143151E8002F22F0010241E80023002BFA
:104D8000F5D1016B012909D101680C3151E8002FDF
:104D900022F0100241E80023002BF5D1202180F8F9
:104DA000421000210163704708B590F84210222993
:104DB00001D0022008BD82684FF480539A4201D18D
:104DC000016921B1816A9A421BD04AB10AE00268A6
:104DD000816A5268C2F308020A80816A891C08E06D
:104DE000026972B10268526802F07F020A70816A39
:104DF000491C8162C18D491E0904090CC18503D07B
:104E00001BE002685268F1E70168CA6822F02002DC
:104E1000CA600168CA6822F48072CA6001684A697F
:104E200022F001024A61202180F8421000214163F2
:104E3000026B012A03D0FFF781FA002008BD01634D
:104E400001680C3151E8002F22F0100241E80023E4
:104E5000002BF5D101680A68D20602D50A684968B4
:104E60000091818DFFF7B1F8E7E7000070B50446C7
:104E700000680169E26821F4405111430161216930
:104E8000A068E26908436169114308432168CA6860
:104E900049F20C639A430243CA6020684169A269DF
:104EA00021F440711143416131492068884202D0A8
:104EB0003049884202D1FEF795F901E0FEF782F908
:104EC000E2690023192164253226B2F5004F626899
:104ED00028D0A0FB0101930F9200FBF77BFA01465B
:104EE000B0FBF5F06FF01802504301EB800006EBC9
:104EF0000010B0FBF5F000F0F002B1FBF5F002EBB2
:104F00000012B1FBF5F06FF01803584301EB80007D
:104F100006EB0010B0FBF5F000F00F002168104424
:104F2000886070BDA0FB010192185B41FBF752FA4B
:104F30000146B0FBF5F00201B1FBF5F06FF018038C
:104F4000584301EB800006EBC000B0FBF5F000F029
:104F5000F80002EB4002B1FBF5F0584301EB800092
:104F600006EBC000B0FBF5F000F00700D6E700004C
:104F7000001001400014014081628285C285002139
:104F80004164222180F84210016921B10168CA6898
:104F900042F48072CA6001684A6942F001024A61C3
:104FA0000068C16841F02001C160002070472DE910
:104FB000F843984617460D460446089E24E0701CA8
:104FC00022D0FDF76DFFA0EB0800B0421AD8CEB199
:104FD0002068C168490717D5802D15D0402D13D002
:104FE0000168C94309070FD4016800254068009093
:104FF0002046FFF7B2FE0820606484F8405001208C
:10500000BDE8F8830320FBE72068006835EA00006C
:1050100004D00020B842D2D00020F1E70120F9E707
:105020000148FEF7D5BF000038020020FEE703B4B8
:1050300001984100009850EAC12018BF04204A0D91
:1050400018BF40F0010040F2FF72B2EB515F08BFA1
:1050500040F00200012808BF052002B07047090790
:10506000090E002804DB00F1E02080F800147047EE
:1050700000F00F0000F1E02080F8141D70470000E0
:1050800030B52DED048B81B0B0EE408AF0EE608A31
:105090006A4651EC180B00F02FF900989FED329BF7
:1050A0007E300090002821DC53EC192B51EC180BBA
:1050B00001F0AEFE1AD0002140F608004FF00000CB
:1050C000044651EC180B01F05DFE08EE100A40F6A4
:1050D000080004EA00014FF00000B5EEC08AF1EECE
:1050E00010FA04BF0220FBF7FEFA2DE00098FF281B
:1050F00030DB002108464FF0000000F4400553EC7F
:10510000192B51EC180B01F0F9FF8CBF002401247E
:105110000220FBF7E8FA9FED168A4DB1002C0CBF78
:105120004FF400004FF48000A84218BF9FED118A91
:10513000042108464FF00000002C01BFB1EE480AE0
:1051400001B0BDEC048B30BDB0EE480A01B0BDEC3F
:10515000048B30BD51EC180B01F014FE01B000EED1
:10516000100ABDEC048B30BD000000000000000000
:105170000000807FFFFF7F7F30B583B00446FBF7E0
:10518000ADFA9FED090B05468DED000B002221467F
:105190006846FBF787FD2846FBF7A5FA9DED000B57
:1051A00003B030BD0000000000000000000000005F
:1051B00030B540F2FF742DED048BF0EE608A18EEEE
:1051C000901A85B0B0EE408A9FED2B9B05468DED81
:1051D000008B34EA115147D053EC192B51EC180BCA
:1051E00001F016FE40D02A4651EC180B02F070F880
:1051F00041EC180B18EE900A8DED008B34EA10503C
:105200001CD053EC192B51EC180B01F001FE2BD1E3
:105210000220FBF768FA00F043F810EE901A18EE3F
:10522000900A8DED020B8DED008B61F31E00039053
:105230009DED020B05B0BDEC048B30BD0220FBF7E9
:1052400052FA00F01DF810EE901A18EE900A8DED4B
:10525000020B8DED008B61F31E0003909DED020BA0
:1052600005B0BDEC048B30BD05B0B0EE480AF0EEE1
:10527000680ABDEC048B30BD000000000000000097
:105280009FED050B10B553EC102B51EC100B01F0FA
:1052900037FE41EC100B10BD000000000000007054
:1052A0009FED050B10B553EC102B51EC100B01F0DA
:1052B00027FE41EC100B10BD0000000000000010A4
:1052C00010B5044691ED000BFFF7DAFE84ED000AFD
:1052D00010BD10B5044690ED000B0846FFF768FFBF
:1052E00084ED000B10BD30380A2801D20120704730
:1052F000002070470000000010B582B01446CDE9D0
:1053000000010023009A2360194B21F000409842CD
:105310002ADA024328D0B0F5801FA8BF226810DA2D
:105320009FED150B53EC102B9DED000B51EC100B6A
:1053300001F0E6FDCDE900016FF0350221F00040FB
:1053400022600F4B6FF31E5103EB2050104420607E
:1053500041F0FF5040F0005001909DED000B00BF68
:1053600002B051EC100B10BD9DED000BF8E70000F2
:105370000000F07F0000000000000000000050432B
:1053800002FCFFFF1CB5FDF799FDFFF7FBFAFFF7E5
:1053900025F9FFF777F9FFF7F5F9FFF729FA002468
:1053A0005B4800945949019401605321C0E90114FC
:1053B00042F20F71C16080218161FEF781F908B16D
:1053C00072B6FEE70094694651480194FEF730F941
:1053D00008B172B6FEE74E4D4E48483540F24736AA
:1053E000C5E90004C5E902462C612846AC61FEF718
:1053F00067F908B172B6FEE7454847499030016049
:105400004FF4E131C0E901140C21C460C0E904414A
:105410008461C461FEF714FF08B172B6FEE73C4830
:1054200001223E499030FEF77BFF39480021D838F1
:10543000FEF7C8FC36480421D838FEF7C3FC3448D0
:105440000821D838FEF7BEFC31480C21D838FEF7C9
:10545000B9FC2F4804219038FEF714FB2C48042196
:105460004838FEF70FFB2A4947F230509039096857
:1054700048622749483909684862284F386178618D
:105480002348FEF78BF92868016A41F21112114294
:1054900007D1016A9210114203D1016821F0010184
:1054A0000160286884622868C662286844622968A6
:1054B0006FF00100086116484830FEF76FF9DFED24
:1054C000181A0020B0EE610AFFF7FAF9B0EE610A8F
:1054D0000120FFF7F5F900210846FFF7C1F9002187
:1054E0000120FFF7BDF900F031F80E4A00210E4807
:1054F00000F05AF80B4AB861243200210B4800F042
:1055000053F8F86100F034F8FEE7000000140040A2
:10551000A8010020001C00400010014000000020F5
:105520000000B4426873000821490008AD45000836
:1055300010B5EFF3058111B16FF0050403E000240D
:1055400008B100F011FE204610BD0000EFF3058009
:1055500010B16FF0050070470448016811B14FF0B9
:10556000FF3070470121016000207047800000205B
:1055700010B5EFF3058010B16FF0050010BD0848BD
:105580000168012902D04FF0FF3010BD054A00210B
:1055900082F8141D0221016000F04EFE002010BDB3
:1055A000800000200BE000E02DE9FF414FEA0103FD
:1055B0004FF00005EFF30581039549BB40B3802709
:1055C000182100244AB3166806B1344696691EB104
:1055D0003146761E382E02D21679F60703D0002007
:1055E00004B0BDE8F081566906B1B708D2F808C02A
:1055F000BCF1000F0DD0D5685C2D18D312693AB1FB
:1056000036B18DE806103A46214601F0AEF9039016
:105610000DE0D6685EB912694AB903AACDE9001255
:10562000BAB2214601F074F9012800D0039503981D
:10563000D6E700002DE9F041134C0F460546E66819
:105640002068001D00F05CFC681C07D137B12168A0
:10565000BDE8F0410D48091D00F0A2BC20683544AA
:10566000B5424560216805D2A06BBDE8F041091D37
:1056700000F07EBC606B091D00F07AFCA06A8542D8
:1056800000D2A562BDE8F08130000020140A00209D
:105690002DE9F041054600F08FFC2D4CA068401C20
:1056A000A06020682B4F10B1606930B32BE02560FB
:1056B000A068012827D1002606EB860007EB8000B2
:1056C00000F048FC761C382EF6D3234800F042FC4C
:1056D0002148143000F03EFC1F48283000F03AFC0E
:1056E0001D483C3000F036FC1B48503000F032FCC6
:1056F000194860631430A06305E02068E96AC06A55
:10570000884200D82560606A401C60626864E86A6C
:105710002169884200D9206100EB800007EB8000FE
:10572000291D00F03DFC00F067FC606900280CD0EA
:105730002068E96AC06A884207D208494FF0805061
:105740000860BFF34F8FBFF36F8FBDE8F08100009B
:105750003000002064050020C409002004ED00E0B2
:1057600038B500F029FC104C2068C8B90F4800F08B
:10577000F1FB0E48143000F0EDFB0C48E0601430F3
:1057800020610A4B0020F03B009003F150021021F1
:105790000A2000F05FFE206010B105A100F0AEFC11
:1057A000BDE8384000F028BC6C000020180B002039
:1057B000546D72510000000030B4026C0B46002A98
:1057C0000BD0C1681144C1608468A14201D3016853
:1057D000C16030BC1846FAF7C5BE30BC70472DE931
:1057E000F041856B174604460026026C82B1C7B1B2
:1057F000E068FAF7B7FEE168206C091AE1602268F8
:10580000914202D2A168081AE060022F16D017E078
:105810002068A8B9A06801F04BF906460020A060F6
:105820000EE06068FAF79EFE216C606808446060D4
:10583000A168884204D32068606001E005B16D1E54
:105840006D1CA5633046BDE8F08110B5044690F8A4
:10585000590058B101280CD002280FD0502080F3F5
:105860001188BFF34F8FBFF36F8FFEE7206B00F0FF
:10587000D7FB2046BDE8104000F0D2BB10BD0000B1
:1058800010484FF47051420706D0C01D0D4920F05A
:105890000700411AC1F570510B4A00230144C2E9C7
:1058A00000030839183A21F0070111604B600B60C2
:1058B0000B1AC0E9001393604FF000405360506131
:1058C00070470000F81100209C000020144E154C79
:1058D000A6F29C474FF08058DFF84C9012E000BFD2
:1058E00000F06AFBF068C568281D00F009FBA0689D
:1058F000401EA0606068401E606000F07DFB28468E
:10590000FFF7A3FF60680028EAD138680128F9D9B9
:10591000C9F80080BFF34F8FBFF36F8FF2E700002D
:10592000000A00203000002004ED00E070B51D46A4
:10593000049C51B1C4F80020C4E90F0101212046A4
:1059400000F0BCFD84F84C5070BD2460F4E700000A
:105950002DE9F05F8846DDE90B94154683469100FA
:105960009A460A9EA522206BFAF741FE6FF00301CA
:10597000206B01EB8501084420F00707780707D06A
:10598000502080F31188BFF34F8FBFF36F8FFEE776
:105990000025B8F1000F0FD05FF00000221818F8B2
:1059A000001082F8341018F8001011B1401C1028B3
:1059B000F4D384F8435001E084F83450382E00D3F7
:1059C0003726E662C4E91365201D00F0CEFA04F123
:1059D000180000F0CAFA2461C6F138006462A061C0
:1059E000656584F8585052465946384600F05AFAD0
:1059F0002060B9F1000F01D0C9F80040BDE8F09F68
:105A000030B5114900E011460A688242FBD34B6869
:105A10005C18844203D140681844486008464368D3
:105A20001C18944209D1084C183C2468A24209D0A1
:105A300052681A4442600A6812680260814200D0CB
:105A4000086030BD0460F9E79C00002070B50024B8
:105A500041600B4D0061914206D8D11A8269914292
:105A600006D2011D286907E09A4203D2994201D368
:105A7000012403E0011DE86800F07AFA204670BDB9
:105A80006C00002010B5044600F096FAA06B28B117
:105A90005FF0000400F0B0FA204610BD0124F9E7E1
:105AA00030B589B03C4D6EE00498002806DADDE997
:105AB0000601059A90470498002864DB069C6069FB
:105AC00010B1201D00F01CFA03A800F0D7F8024620
:105AD00004980A2857D2DFE800F00505052D334A5F
