:020000040800F2
:1000000020540020E9020008731B00085118000862
:10001000711B00081F0600085520000800000000A2
:10002000000000000000000000000000290200089D
:10003000210600080000000085020008811B00085E
:100040000303000803030008030300080303000878
:100050000303000803030008030300080303000868
:100060000303000803030008030300080303000858
:100070000303000803030008030300080303000848
:100080000303000803030008030300080303000838
:100090000303000803030008030300080303000828
:1000A0000303000803030008030300080303000818
:1000B000451C0008030300080303000803030008AD
:1000C00003030008030300080303000803030008F8
:1000D00003030008030300080303000803030008E8
:1000E00003030008030300080303000803030008D8
:1000F000751C0008691C00080303000803030008BE
:100100000303000803030008511C00080303000850
:100110000303000803030008030300085D1C000834
:100120000303000803030008030300080303000897
:100130000303000803030008030300080303000887
:100140000303000803030008030300080303000877
:100150000303000803030008030300080303000867
:100160000303000803030008030300080303000857
:100170000303000803030008030300080000000055
:10018000030300080303000800F002F800F03CF845
:100190000AA090E8000C82448344AAF10107DA45E2
:1001A00001D100F031F8AFF2090EBAE80F0013F0F8
:1001B000010F18BFFB1A43F001031847CC370000AA
:1001C000EC370000103A24BF78C878C1FAD852073B
:1001D00024BF30C830C144BF04680C6070470000C1
:1001E0000023002400250026103A28BF78C1FBD840
:1001F000520728BF30C148BF0B6070471FB503F0DE
:1002000081FB1FBD10B510BD00F0D0F91146FFF7FE
:10021000F5FF01F031FF00F0EEF903B4FFF7F2FF54
:1002200003BC00F0F5F900002C4B19680868B0E831
:10023000F04F80F30988BFF36F8F4FF0000080F319
:10024000118870470000000008480068006880F3CB
:1002500008884FF0000080F3148862B661B6BFF3DF
:100260004F8FBFF36F8F00DF00BF00BF08ED00E0CE
:10027000DFF80C00016841F470010160704700BFB5
:1002800088ED00E0EFF30980BFF36F8F134B1A681E
:100290001EF0100F08BF20ED108A20E9F04F10600B
:1002A00009B44FF0500080F31188BFF34F8FBFF3B4
:1002B0006F8F02F0F9FD4FF0000080F3118809BC48
:1002C00019680868B0E8F04F1EF0100F08BFB0ECD6
:1002D000108A80F30988BFF36F8F704718000020E1
:1002E000EFF3058070470000094880470948004740
:1002F000FEE7FEE7FEE7FEE7FEE7FEE7FEE7FEE7D6
:10030000FEE7FEE704480549054A064B7047000032
:10031000351C000889010008204E002020540020D0
:10032000205000202050002053EA020C00F0698089
:100330002DE9F04B4FF00006002B1FBFB3FA83F5F9
:1003400003FA05F424FA05F65E4012BF1643B2FA2A
:1003500082F502FA05F4C5F120051EBF22FA05FC5C
:1003600044EA0C04203556EA044C4FEA144418BF02
:10037000641C4FF000084FF00009904271EB030C31
:1003800039D3002919BFB1FA81F701FA07F6B0FA9B
:1003900080F700FA07F6C7F120071EBF20FA07FC16
:1003A00046EA0C062037B6FBF4FCA7EB0507103F26
:1003B00007F01F0BCBF120060CFA0BFB2CFA06F60C
:1003C00044BFB3460026202FA4BF5E464FF0000B6B
:1003D0005BEA060C08BF4FF0010B19EB0B09ABFBF6
:1003E000027C48EB0608C01B06FB02CC0BFB03CCCF
:1003F00071EB0C01C1E70B46024641464846BDE899
:10040000F08B13B54FF000004FF00001AFF3008008
:10041000BDE81C407047032A40F2308010F0030C06
:1004200000F0158011F8013BBCF1020F624498BF47
:1004300011F801CB00F8013B38BF11F8013BA2F1E4
:10044000040298BF00F801CB38BF00F8013B11F05F
:10045000030300F05780083AC0F0088051F8043BCD
:10046000083A51F804CBA0E80810F5E7121D5CBF6C
:1004700051F8043B40F8043BAFF30080D20724BF9F
:1004800011F8013B11F801CB48BF11F8012B24BF33
:1004900000F8013B00F801CB48BF00F8012B704782
:1004A00002F0FF0343EA032242EA024200F05EB890
:1004B0004FF0000200B5134694469646203922BFFD
:1004C000A0E80C50A0E80C50B1F12001BFF4F7AF48
:1004D000090728BFA0E80C5048BF0CC05DF804EB2A
:1004E000890028BF40F8042B08BF704748BF20F898
:1004F000022B11F0804F18BF00F8012B7047704796
:100500007047704710B5203AC0F00B80B1E8185022
:10051000203AA0E81850B1E81850A0E81850BFF4ED
:10052000F5AF5FEA027C24BFB1E81850A0E818508C
:1005300044BF18C918C0BDE810405FEA827C24BFE0
:1005400051F8043B40F8043B08BF7047D20728BF6E
:1005500031F8023B48BF11F8012B28BF20F8023BBD
:1005600048BF00F8012B70474FF000020429C0F08B
:10057000128010F0030C3FF49DAFCCF1040CBCF1E1
:10058000020F18BF00F8012BA8BF20F8022BA1EB27
:100590000C01FFF78FBF5FEAC17C24BF00F8012B7D
:1005A00000F8012B48BF00F8012B7047754600F09A
:1005B0002BF8AE4605006946534620F007008546F5
:1005C00018B020B5FFF79EFEBDE820404FF00006B2
:1005D0004FF000074FF000084FF0000B21F007012B
:1005E000AC46ACE8C009ACE8C009ACE8C009ACE86E
:1005F000C0098D46704710B50446AFF30080204611
:10060000BDE81040FFF709BE00487047C04D00200C
:1006100001491820ABBEFEE7260002007047FEE746
:10062000704700002DE9F84FDFF8BCA1002201253A
:1006300003264FF00F090AF1040BAAF1040E00BFC4
:100640000B6805FA02F42340A34270D10F7907F03A
:100650000307012F01D0022F16D187684FEA420805
:1006600006FA08FC27EA0C07D1F80CC00CFA08FCC3
:100670004CEA070CC0F808C04768A7430C79C4F3DC
:10068000001494403C4344600C79E443A4070AD02E
:10069000C4684FEA420C06FA0CF7BC438F6807FAAD
:1006A0000CF72743C7600C7904F00304022C12D125
:1006B000D40800EB840CDCF820405707FF0E09FA41
:1006C00007F824EA0804D1F8108008FA07F848EA85
:1006D0000408CCF8208004684FEA420C06FA0CF7B4
:1006E000BC430F7907F0030707FA0CF727430760AD
:1006F0004C6814F4403F70D03C4C276847F4804766
:100700002760246822F0030704F480440094384CE6
:1007100007EB040CDCF8084897074FEA177809FA4A
:1007200008F7BC43334FB84202D1002724E054E01D
:10073000314FB84201D101271EE0304FB84201D1FC
:10074000022719E02E4FB84201D1032714E02D4FA4
:10075000B84201D104270FE02B4FB84201D1052741
:100760000AE02A4FB84201D1062705E0284FB842D7
:1007700001D1072700E0082707FA08F72743CCF83C
:100780000878DAF800405746D1F804C09C435FEA85
:10079000CC2C00D51C433C60DBF800405F46D1F810
:1007A00004C09C435FEA8C2C00D51C433C60DEF8FF
:1007B00000407746D1F804C09C435FEA8C3C00D5EA
:1007C0001C433C60084F083F3C68D1F804C09C4380
:1007D0005FEACC3C00D51C433C60521C102AFFF45D
:1007E0002FAFBDE8F88F0000083C014044380240BC
:1007F00000300140000002400004024000080240B6
:10080000000C024000100240001402400018024098
:10081000001C02400AB1816170470904FBE7000037
:100820000148806870470000080000200248816885
:100830000278114481607047080000200B4810B511
:10084000016841F400710160016841F48061016058
:10085000016841F480710160032000F09FF80F20CF
:1008600000F006F800F050F8002010BD003C0240F7
:1008700030B505461F4887B00024016841F48071F7
:100880000160006806A900F48070009001A800F0E3
:1008900039F90498A8B100F055F940001649174AF3
:1008A000B0FBF1F11648491E026040F2E732C0E9A0
:1008B0000324C0E90114846100F0C2FB040003D0EA
:1008C00015E000F03FF9E9E70D4800F027FC0400CF
:1008D0000DD12D2000F034F8102D07D2002229462A
:1008E0002D2000F03BF80748056000E0012407B028
:1008F000204630BD4038024040420F0000200040FA
:10090000A40400200C0000200C4882B0016841F4CF
:1009100080410160006800F4804000900748001F9B
:10092000016841F0805101600068002200F08050B1
:1009300000900F21901E02B000F010B84438024021
:10094000002809DB00F01F020121914040098000CE
:1009500000F1E020C0F8001170470000F0B40E4B29
:100960001B680C46C3F30223C3F10705042D00D90D
:100970000425191D072901D2002300E0DB1E0126F2
:1009800006FA05F1491E214099409E40761E164008
:100990003143F0BC01F05FBB0CED00E0064900F014
:1009A000070208684FF6FF03184040EA0220034A96
:1009B00010430860704700000CED00E00000FA05ED
:1009C000704700002DE9F0470E46050065D0DFF8BE
:1009D0001481D8F80000F7B200F00700B04207D247
:1009E00088F80070D8F8000000F00700B04254D139
:1009F00028683D4C810712D5400703D5206840F494
:100A0000E05020602878000703D5206840F460405B
:100A100020602068A96820F0F00008432060287852
:100A2000C0072DD0304968680839012812D0022843
:100A300013D0032811D00968890700292DDA21680D
:100A400021F0030101432160FFF7EAFE814641F2F4
:100A5000883A0EE009688903EFE709688901ECE745
:100A6000FFF7DEFEA0EB0901514502D90320BDE8E6
:100A7000F0872068696800F00C00B0EB810FEFD1BF
:100A8000D8F80010404601F00701B14207D90770BD
:100A9000006800F00700B04201D00120E7E72878A5
:100AA000400705D52068E96820F4E050084320603D
:100AB0002878000706D52068296920F4604040EABC
:100AC000C100206000F05EF82168084AC1F30311FC
:100AD000515CC8400649086006480068FFF7C8FE38
:100AE0000020C4E7003C02400838024058390008A2
:100AF000140000200C00002001490120C864704748
:100B0000000047420F2202600C4A136803F00303FF
:100B10004360136803F0F0038360136803F4E05349
:100B2000C36012684FF4E05303EAD2020261044842
:100B3000006800F0070008607047000008380240B5
:100B4000003C02400448054900680968044AC1F3B2
:100B50008221515CC84070471400002008380240D0
:100B6000683900080448054900680968044AC1F367
:100B70004231515CC84070471400002008380240E0
:100B800068390008104810B5006810F00C010F48D3
:100B900018D0042916D0082914D10B4C241F216821
:100BA00001F03F02216821680023C1F38811A1FBF5
:100BB0000001FFF7B9FB2168C1F30141491C49005D
:100BC000B0FBF1F010BD0000083802400024F40032
:100BD000054810B50068000605D5FFF7F1FE02498B
:100BE0008020891C087010BD0C3802402DE9F84F98
:100BF00004006ED02078DFF84C93C007A9F10405FB
:100C00004AD009F104000168C1F38101012908D02B
:100C10000068C0F3810002280AD1D9F80000400220
:100C200006D52868800337D560680028E1D033E016
:100C30006068B0F5803F10D0B0F5A02F286810D0C4
:100C400020F480302860286820F4802028606068C4
:100C5000A8B1FFF7E5FD06460DE0286840F48030B6
:100C6000F4E740F480202860F7E700BFFFF7D8FDE5
:100C7000801B642873D828688003F7D50CE0FFF741
:100C8000CFFD064605E000BFFFF7CAFD801B6428C4
:100C9000F0D828688003F7D42078DFF8AC8280078A
:100CA0004FF0000A3ED5A748001D016811F00C0F57
:100CB00008D00068C0F3810002280BD1D9F80000E9
:100CC000400207D42868800716D5E068012800D1C3
:100CD00012E033E1E068B8B10120C8F80000FFF786
:100CE0009FFD064605E000BFFFF79AFD801B022826
:100CF000C0D828688007F7D52868216920F0F80057
:100D000040EAC10028600DE0C8F800A0FFF788FDA8
:100D1000064604E0FFF784FD801B02281FD82868E0
:100D20008007F7D42078000722D5864F874861696D
:100D3000703771B101210160FFF772FD064604E0D2
:100D4000FFF76EFD801B022809D838688007F7D5A9
:100D50000EE0C0F800A0FFF763FD064605E082E064
:100D6000FFF75EFD801B02287DD838688007F7D426
:100D70002078400768D5DFF8CCB100270BF13C0B99
:100D8000DBF80000C0000BD4DBF8001041F080510C
:100D9000CBF80010DBF80000012700F08050009035
:100DA0006B4E3068C00510D4306840F480703060FD
:100DB000FFF736FD009005E0FFF732FD0099401A7D
:100DC000022850D83068C005F6D55E4EA0686C3653
:100DD00001280FD00528306810D020F001003060C5
:100DE000306820F004003060A068B8B1FFF718FD4B
:100DF00000900FE0306840F00100F4E740F004009C
:100E00003060F7E7FFF70CFD0099411A41F2883096
:100E1000814266D830688007F4D50EE0FFF700FD08
:100E2000009007E0FFF7FCFC0099411A41F288307E
:100E3000814256D830688007F4D42FB1DBF8001017
:100E400021F08051CBF80010A069C8B33D49091DBD
:100E50000968C1F3810102294AD00228504607D00F
:100E6000C8F8600000E03CE0FFF7DAFC04463BE035
:100E70004746C8F86000FFF7D3FC064605E000BF10
:100E8000FFF7CEFC801B02282BD828688001F7D4FE
:100E9000D4E907010843A16A2E4A490802EB01413F
:100EA000626A41EA8211084394F82C1040EA016119
:100EB000C9F8001001203866FFF7B2FC044606E0CE
:100EC0003EE000BFFFF7ACFC001B022809D82868F1
:100ED0008001F7D534E000BFFFF7A2FC001B022819
:100EE00002D90320BDE8F88F28688001F4D427E0F8
:100EF0000128F7D0D9F80000E26900F4800191429E
:100F00001CD1226A00F03F01914217D147F6C0710F
:100F1000626A0140B1EB821F10D1A26A4FF0FF3329
:100F200000F4403103EB5202B1EB024F06D194F8CA
:100F30002C1000F07060B0EB016F01D00120D1E700
:100F40000020CFE70438024000004742800E4742AD
:100F5000007000400000FFFF7047704710B590F828
:100F60003C20012A22D0012280F83C20CA688C68EB
:100F700022F4407222434C6822F4806222430C68BF
:100F800022F4006222430C6922F4805222434C690D
:100F900022F400522243C969002322F480420A430A
:100FA00001684A6480F83C30002010BD022010BD6A
:100FB00070B590F83C20012A32D0012480F83C40E2
:100FC000022280F83D2003685A689D6822F070066E
:100FD0000A6832435A60134B02689A4214D0B2F145
:100FE000804F11D0104B9A420ED0104B9A420BD02A
:100FF0000F4B9A4208D00F4B9A4205D00E4B9A42A3
:1010000002D00E4B9A4204D1496825F0800319435F
:10101000916080F83D40002180F83C10084670BD8A
:10102000022070BD000001400004004000080040A4
:10103000000C004000040140004001400018004046
:1010400010B5040003D094F83D0010B107E0012072
:1010500010BD002084F83C00204600F01FF802205C
:1010600084F83D00211D206800F00AFE012084F86C
:10107000460084F83E0084F83F0084F8400084F87D
:10108000410084F8420084F8430084F8440084F866
:10109000450084F83D00002010BD000008B501683F
:1010A0001A48814209D11A48016841F001010160E2
:1010B000006800F00100009008BD1548154A001FA7
:1010C00091420ED1016841F02001016000680022C8
:1010D00000F02000009006213720FFF73FFC37206A
:1010E00010E00D4A9142E7D1016841F080010160B2
:1010F0000068002200F08000009006212C20FFF7FD
:101100002DFC2C20BDE80840FFF71ABC0000014070
:101110004438024000140040001C004090F83D108C
:10112000012901D001207047022180F83D1001689B
:10113000CA6842F00102CA6000681149884214D0AE
:10114000B0F1804F11D00F4988420ED00E4988422D
:101150000BD00E49884208D00D49884205D00D4970
:10116000884202D00C49884204D1816801F007010D
:10117000062903D0016841F0010101600020704799
:10118000000001400004004000080040000C004046
:1011900000040140004001400018004070B50446C2
:1011A00090F83C000025012817D0012684F83C6007
:1011B000022084F83D002068826822F0770222F441
:1011C0007F4282600868502838D00DDC20284FD03C
:1011D00005DC90B3102811D14AE0022070BD302800
:1011E00046D040280AD13BE060282FD070280DD08F
:1011F000B0F5805F03D0B0F5005F12D0012584F810
:101200003D60002084F83C00284670BDCB68D1E9E1
:101210000121206800F0A0FD2068816841F077017D
:1012200009E0CB68D1E90121206800F095FD206834
:10123000816841F480418160E1E719E0CA6849684A
:10124000206800F05DFE5021206806E0CA68496809
:10125000206800F066FE6021206800F087FDCEE780
:10126000CA684968206800F04BFE40212068F4E716
:10127000226801461046F0E72DE9F0410D460400D2
:1012800003D094F83D0018B108E00120BDE8F081DA
:10129000002084F83C00204600F040F8022084F84A
:1012A0003D002068816844F2070291438160211D5E
:1012B000206800F0E5FC226890689169166A2B6846
:1012C000AF69034340F20330814341EA0721A86834
:1012D000EF6908434FF6FC418843E96840EA07207C
:1012E000014328692F6A000140EA07300843696812
:1012F0006D6926F0AA0646EA05152943936022681F
:10130000906154F8460B0162012004F81F09E07552
:101310002076E0762077A0750020B7E7F0B587B09B
:10132000044614216846FFF7C3F832492368314A5E
:1013300010390225012403262F48B3F1804F25D010
:101340002E4FBB4220D1136843F00803136012688C
:1013500002F0080205920A6842F001020A60096878
:10136000CDE9006501F00101CDE90451CDE9024666
:101370006946FFF757F9002206213220FFF7EEFAFF
:101380005FF03200FFF7DCFA07B0F0BD136843F0FE
:1013900001031360126802F0010205920A6842F02C
:1013A00001020A600A6802F0010205920A6842F02E
:1013B00002020A60096801F0020105914FF4004140
:1013C0000091CDE90154CDE903646946FFF72AF99C
:1013D00008200090CDE90154CDE90364694608482E
:1013E000FFF720F9002206211C20FFF7B7FA1C2086
:1013F000C8E700004038024000000240000C0040F6
:101400000004024070472DE9F04104460068C668B8
:1014100005694FF00007A90713D5B10711D5F91ECB
:10142000016101202077206880698007204602D072
:10143000FFF7E8FF04E000F0D2F8204600F092F950
:101440002777680716D5700714D521686FF0040058
:101450000861022020772068806910F4407F2046D0
:1014600002D0FFF7CFFF04E000F0B9F8204600F00B
:1014700079F92777280715D5300713D521686FF03C
:1014800008000861042020772068C0698007204692
:1014900002D0FFF7B7FF04E000F0A1F8204600F00B
:1014A00061F92777E80616D5F00614D521686FF0A4
:1014B00010000861082020772068C06910F4407F80
:1014C000204602D0FFF79EFF04E000F088F8204697
:1014D00000F048F92777E80708D0F00706D0216820
:1014E0006FF001000861204600F03EF9280608D59B
:1014F000300606D521686FF0800008612046FFF7AE
:101500002BFD680608D5700606D521686FF04000EF
:101510000861204600F032F9A8060AD5B00608D5C1
:1015200021686FF0200008612046BDE8F041FFF718
:1015300014BDBDE8F081000010B586B0044614214A
:101540006846FEF7B5FF0E492068884216D10D485F
:101550000021026842F010020260006800F01000F2
:1015600005904FF4D44000900220CDE90101039092
:101570000120049069460448FFF754F806B010BDF6
:1015800000000140303802400010024070B50446AF
:1015900090F83C00002501280FD0012084F83C0081
:1015A0006AB1042A0FD0082A11D00C2A13D00125C1
:1015B000002084F83C00284670BD022070BD2068E1
:1015C00000F0DCFBF4E7206800F008FCF0E720689E
:1015D00000F03AFCECE7206800F06AFCE8E77047AE
:1015E00010B5040003D094F83D0010B107E00120CD
:1015F00010BD002084F83C00204600F01EF80220B8
:1016000084F83D00211D206800F03AFB012084F899
:10161000460084F83E0084F83F0084F8400084F8D7
:10162000410084F8420084F8430084F8440084F8C0
:10163000450084F83D00002010BD704770B5044699
:1016400090F83C0000260D4601280FD0012084F8B8
:101650003C006AB1042A1DD0082A2FD00C2A3FD0A2
:101660000126002084F83C00304670BD022070BD89
:10167000206800F083FB2068816941F008018161E6
:101680002068816921F004018161206881692A69EB
:10169000114311E0206800F0A1FB2068816941F44A
:1016A000006181612068816921F480618161206825
:1016B00081692A6941EA02218161D2E7206800F04C
:1016C000C3FB2068C16941F00801C1612068C1699C
:1016D00021F00401C1612068C1692A69114311E048
:1016E000206800F0E5FB2068C16941F40061C16138
:1016F0002068C16921F48061C1612068C1692A69DB
:1017000041EA0221C161ACE710B5040003D094F8AE
:101710003D0010B107E0012010BD002084F83C001E
:10172000204600F01EF8022084F83D00211D2068AC
:1017300000F0A6FA012084F8460084F83E0084F800
:101740003F0084F8400084F8410084F8420084F8A7
:10175000430084F8440084F8450084F83D000020EC
:1017600010BD70477047000000680349884201D1EE
:10177000FFF75CB87047000000200040704770B56C
:10178000040004D094F84100002510B106E00120C7
:1017900070BD84F84050204600F024F8242084F8DE
:1017A00041002068C16821F40051C160204600F06A
:1017B000CBFB2068016921F49041016120684169F7
:1017C00021F02A0141612068C16841F40051C160E3
:1017D0006564202084F8410084F84200656300209D
:1017E00070BD000010B586B0044614216846FEF7AF
:1017F0005FFE14492068884221D113480021026805
:1018000042F010020260006800F0100005900E48DF
:101810001438026842F001020260006800F0010022
:1018200005904FF4C06000900220CDE90101032033
:1018300003900720049069460448FEF7F3FE06B0C3
:1018400010BD00000010014044380240000002407A
:10185000FEE700002DE9F0410B4D4FF47A764FF48E
:1018600080647710012221462846FEF7D3FF3046D8
:1018700000F062FC002221462846FEF7CBFF3846E6
:1018800000F05AFCEEE70000001002402DE9F041A4
:1018900086B014216846FEF70BFE23480025016838
:1018A00041F080010160016801F08001059101684B
:1018B00041F001010160016801F001010591016839
:1018C00041F010010160016801F01001059101680B
:1018D00041F0020101600068012200F00200134F94
:1018E0009402059021463846FEF794FFDFF84080C9
:1018F0004FF4C056002231464046FEF78BFF00945D
:101900000124694638460194CDE90245FEF78AFE76
:101910000220CDE90250CDE9006469464046FEF759
:1019200081FE06B0BDE8F081303802400010024070
:101930000000024010B588B01C216846FEF7B8FDD3
:1019400014481349002401605321C0E9011441F2F5
:101950008731C0E9031480218161FFF771FB08B171
:1019600072B6FEE70B48FFF73BFE08B172B6FEE722
:101970000094019402940022694606480494FFF7FB
:1019800005FE002801D072B6FEE708B010BD0000C9
:10199000001C0040B801002010B596B000240F9440
:1019A00010941194129413941C2168461494FEF719
:1019B0007FFD202107A8FEF77BFD364834490160F2
:1019C00040F24731C0E9011440F2E731C0E90314A5
:1019D0008021C0E90541FFF733FB08B172B6FEE78D
:1019E0004FF480500F900FA92A48FFF7D7FB08B19A
:1019F00072B6FEE72748FFF787FE08B172B6FEE72A
:101A0000139413A923481494FFF7D2FA08B172B6BD
:101A1000FEE76020CDE9000404200294CDE90340F4
:101A20000594002269461B480694FFF707FE08B19B
:101A300072B6FEE7042269461648FFF7FFFD08B1BB
:101A400072B6FEE7082269461248FFF7F7FD08B1B3
:101A500072B6FEE70C2269460E48FFF7EFFD08B1AB
:101A600072B6FEE70794089409944FF400500A9464
:101A7000CDE90B4007A907480E94FFF76FFA08B1AC
:101A800072B6FEE70348FFF757FD16B010BD000021
:101A9000000001409800002010B58CB02421684659
:101AA000FEF706FD0024164809944FF080410A9481
:101AB000C0E900144EF66021C0E9024180210461B2
:101AC00081610320CDE900040120CDE902040494E2
:101AD000CDE905400794694609480894FFF7CCFB17
:101AE00008B172B6FEE7099409A905480A94FFF700
:101AF0005FFA002801D072B6FEE70CB010BD0000FE
:101B0000E000002010B58CB024216846FEF7D0FC20
:101B100000241648099414490A94C0E900144EF6AA
:101B20006021C0E902418021046181610320CDE987
:101B300000040120CDE902040494CDE90540079496
:101B400069460A480894FFF797FB08B172B6FEE7AA
:101B5000099409A905480A94FFF72AFA002801D038
:101B600072B6FEE70CB010BD000C0040280100204A
:101B7000FEE7FFF72DF8FEE7012000F0DDFAFBE7B6
:101B800010B54FF0E020006901F006FD012803D0F8
:101B9000BDE8104001F034BA10BD000030B593B07C
:101BA00030216846FEF784FC14210CA8FEF780FC67
:101BB0001E480025016841F080510160006800F076
:101BC000805011901A48016841F48041016000681A
:101BD000022400F480401190012000900004019044
:101BE0008001CDE9064008200890A820CDE909042D
:101BF00004200B906846FEF7F9FF08B172B6FEE7C5
:101C00000CA90F2081E831004FF4A0500F904FF441
:101C10008050109005210CA8FEF7D4FE08B172B6D2
:101C2000FEE7FEF769FF13B030BD00004038024008
:101C3000007000400248016841F470010160704783
:101C400088ED00E00148FFF7DEBB0000E000002067
:101C50000148FFF7D8BB0000280100200148FFF72A
:101C6000D2BB0000700100200148FFF7CCBB000090
:101C7000A40400200148FFF7C6BB0000B801002003
:101C8000F0B50268294C2A4D2A4E2B4F2B4B4FF0B2
:101C9000804CA04209D0604507D0A84205D0B04290
:101CA00003D0B84201D0984204D122F0700E4A68A5
:101CB00042EA0E02A0421BD0604519D0A84217D0BC
:101CC000B04215D0B84213D0984211D01C4DA84252
:101CD0000ED01C4DA8420BD01B4DA84208D01B4D66
:101CE000A84205D01A4DA84202D01A4DA84203D1ED
:101CF00022F44075CA682A434D6922F080022A43C3
:101D000002608A68C2620A688262A04201D0984278
:101D100001D109690163012141610169C90703D04A
:101D2000016921F001010161F0BD000000000140E6
:101D30000004004000080040000C00400004014086
:101D400000400140004401400048014000180040AC
:101D5000001C00400020004010B5846842EA0322C5
:101D600024F47F440A432243826010BD826822F03B
:101D700070020A4342F0070181607047F0B5036AC0
:101D8000026A22F00102026242688469124E24F063
:101D900073050C682C4323F002058B682B430D4D13
:101DA000A84201D0B04205D123F00807CB683B43DD
:101DB00023F00403A84201D0B04205D14D6922F4BA
:101DC000407215438A692A434260846149684163CD
:101DD0000362F0BD0000014000040140F0B5026A5A
:101DE000036A23F010030362436884690D6824F4D6
:101DF000E64444EA05248D6822F0200242EA0512F6
:101E00000F4D104EA84201D0B04206D1CF6822F04B
:101E1000800242EA071222F04002A84201D0B042FA
:101E200007D14D6923F4406343EA85038D6943EA92
:101E3000850343608461496881630262F0BD0000EC
:101E40000000014000040140F0B5026A036A23F477
:101E5000807303624368C46922F4007224F073053E
:101E60000C68124E2C438D6842EA05220E4DA842A2
:101E700001D0B04206D1CF6822F4006242EA0722C4
:101E800022F48062A84201D0B04207D14D6923F408
:101E9000405343EA05138D6943EA05134360C46167
:101EA0004968C1630262F0BD0000014000040140C6
:101EB00030B5046A026A22F4805202624268C36941
:101EC0000D6823F4E64343EA05238D6824F40054A7
:101ED00044EA0534084DA84202D0084DA84204D176
:101EE0004D6922F4804242EA85124260C36149682A
:101EF0000164046230BD00000000014000040140A4
:101F000010B5036A046A24F001040462846924F0B1
:101F1000F00444EA021423F00A020A4384610262D4
:101F200010BD10B5036A046A24F0100404628469C9
:101F300023F0A00324F4704444EA023243EA01117E
:101F40008261016210BD000070B50446006801693D
:101F5000E26821F44051114301612169A068E269FE
:101F600008436169114308432168CA6849F20C6358
:101F70009A430243CA6020684169A26921F4407112
:101F80001143416131492068884202D0304988427A
:101F900002D1FEF7E7FD01E0FEF7D4FDE269002380
:101FA000192164253226B2F5004F626828D0A0FBC3
:101FB0000101930F9200FEF7B7F90146B0FBF5F06F
:101FC0006FF01802504301EB800006EB0010B0FBED
:101FD000F5F000F0F002B1FBF5F002EB0012B1FBFE
:101FE000F5F06FF01803584301EB800006EB00108A
:101FF000B0FBF5F000F00F0021681044886070BD60
:10200000A0FB010192185B41FEF78EF90146B0FB7F
:10201000F5F00201B1FBF5F06FF01803584301EB46
:10202000800006EBC000B0FBF5F000F0F80002EB1A
:102030004002B1FBF5F0584301EB800006EBC00015
:10204000B0FBF5F000F00700D6E7000000100140FB
:1020500000140140FEE70907090E002804DB00F127
:10206000E02080F80014704700F00F0000F1E0203D
:1020700080F8141D704700001CB5FEF7DFFBFFF76A
:102080008DFDFFF703FCFFF787FCFFF705FDFFF76A
:1020900039FD002422480094204901940160532115
:1020A000C0E9011442F20F71C16080218161FEF725
:1020B000C7FF08B172B6FEE700946946184801945C
:1020C000FEF776FF08B172B6FEE7FFF733FC14485F
:1020D0001449903001604FF4E131C0E901140C2142
:1020E000C460C0E904418461C461FFF748FB08B1E2
:1020F00072B6FEE700F02EF80B4A00210B4800F004
:1021000057F80B4C084A002120602432094800F09F
:102110004FF8606000F030F8FEE700000014004067
:10212000700100200010014010390008791B0008E0
:10213000000000205518000810B5EFF3058111B11B
:102140006FF0050403E0002408B100F0F9FD20461B
:1021500010BD0000EFF3058010B16FF0050070476F
:102160000448016811B14FF0FF3070470121016050
:10217000002070476800002010B5EFF3058010B113
:102180006FF0050010BD08480168012902D04FF02A
:10219000FF3010BD054A002182F8141D02210160A4
:1021A00000F036FE002010BD680000200BE000E0CB
:1021B0002DE9FF414FEA01034FF00005EFF30581E0
:1021C000039549BB40B38027182100244AB3166801
:1021D00006B1344696691EB13146761E382E02D2BB
:1021E0001679F60703D0002004B0BDE8F0815669E7
:1021F00006B1B708D2F808C0BCF1000F0DD0D56801
:102200005C2D18D312693AB136B18DE806103A4602
:10221000214601F096F903900DE0D6685EB9126987
:102220004AB903AACDE90012BAB2214601F05CF91D
:10223000012800D003950398D6E700002DE9F0416E
:10224000134C0F460546E6682068001D00F044FC6C
:10225000681C07D137B12168BDE8F0410D48091D60
:1022600000F08ABC20683544B5424560216805D23B
:10227000A06BBDE8F041091D00F066BC606B091D54
:1022800000F062FCA06A854200D2A562BDE8F08140
:1022900018000020DC0900202DE9F041054600F07F
:1022A00077FC2D4CA068401CA06020682B4F10B11B
:1022B000606930B32BE02560A068012827D1002693
:1022C00006EB860007EB800000F030FC761C382E11
:1022D000F6D3234800F02AFC2148143000F026FCF5
:1022E0001F48283000F022FC1D483C3000F01EFC46
:1022F0001B48503000F01AFC194860631430A0638A
:1023000005E02068E96AC06A884200D82560606AF2
:10231000401C60626864E86A2169884200D92061D3
:1023200000EB800007EB8000291D00F025FC00F089
:102330004FFC606900280CD02068E96AC06A8842B6
:1023400007D208494FF080500860BFF34F8FBFF3AA
:102350006F8FBDE8F0810000180000202C050020E0
:102360008C09002004ED00E038B500F011FC104CA1
:102370002068C8B90F4800F0D9FB0E48143000F0AF
:10238000D5FB0C48E060143020610A4B0020F03B84
:10239000009003F1500210210A2000F047FE206057
:1023A00010B105A100F096FCBDE8384000F010BC6B
:1023B00054000020E00A0020546D7251000000001B
:1023C00030B4026C0B46002A0BD0C1681144C160C6
:1023D0008468A14201D30168C16030BC1846FEF791
:1023E0001AB830BC70472DE9F041856B174604469A
:1023F0000026026C82B1C7B1E068FEF70CF8E16814
:10240000206C091AE1602268914202D2A168081A80
:10241000E060022F16D017E02068A8B9A06801F08C
:1024200033F906460020A0600EE06068FDF7F3FF78
:10243000216C606808446060A168884204D3206809
:10244000606001E005B16D1E6D1CA5633046BDE8FE
:10245000F08110B5044690F8590058B101280CD00D
:1024600002280FD0502080F31188BFF34F8FBFF3A5
:102470006F8FFEE7206B00F0BFFB2046BDE81040E9
:1024800000F0BABB10BD000010484FF47051420775
:1024900006D0C01D0D4920F00700411AC1F570514A
:1024A0000B4A00230144C2E900030839183A21F01D
:1024B000070111604B600B600B1AC0E900139360B9
:1024C0004FF000405360506170470000C011002081
:1024D00084000020144E154CA6F29C474FF0805803
:1024E000DFF84C9012E000BF00F052FBF068C568C6
:1024F000281D00F0F1FAA068401EA0606068401E30
:10250000606000F065FB2846FFF7A3FF60680028C5
:10251000EAD138680128F9D9C9F80080BFF34F8F94
:10252000BFF36F8FF2E70000C809002018000020F9
:1025300004ED00E070B51D46049C51B1C4F80020C4
:10254000C4E90F010121204600F0A4FD84F84C509D
:1025500070BD2460F4E700002DE9F05F8846DDE9F6
:102560000B941546834691009A460A9EA522206B3D
:10257000FDF796FF6FF00301206B01EB8501084426
:1025800020F00707780707D0502080F31188BFF3A9
:102590004F8FBFF36F8FFEE70025B8F1000F0FD00C
:1025A0005FF00000221818F8001082F8341018F8B4
:1025B000001011B1401C1028F4D384F8435001E0FE
:1025C00084F83450382E00D33726E662C4E9136508
:1025D000201D00F0B6FA04F1180000F0B2FA2461F0
:1025E000C6F138006462A061656584F858505246AF
:1025F0005946384600F05AFA2060B9F1000F01D070
:10260000C9F80040BDE8F09F30B5114900E011461F
:102610000A688242FBD34B685C18844203D140684D
:1026200018444860084643681C18944209D1084C75
:10263000183C2468A24209D052681A4442600A68D1
:1026400012680260814200D0086030BD0460F9E782
:102650008400002070B5002441600B4D0061914260
:1026600006D8D11A8269914206D2011D286907E075
:102670009A4203D2994201D3012403E0011DE86884
:1026800000F062FA204670BD5400002010B50446E8
:1026900000F07EFAA06B28B15FF0000400F098FA19
:1026A000204610BD0124F9E730B589B03C4D6EE0FD
:1026B0000498002806DADDE90601059A9047049897
:1026C000002864DB069C606910B1201D00F004FA4C
:1026D00003A800F0D7F8024604980A2857D2DFE88A
:1026E00000F00505052D334A05052D3394F8280023
:1026F00040F0010084F828000599A069059B014479
:102700002046FFF7A7FF68B3216A2046884794F860
:10271000280040073BD5002000900598A1690023C0
:1027200042181946204601F0B9F8D8B9502080F374
:102730001188BFF34F8FBFF36F8FFEE714F8280F98
:1027400020F00100207022E094F8280040F0010001
:1027500084F828000598A06128B181181346204606
:10276000FFF778FF13E0502080F31188BFF34F8FFD
:10277000BFF36F8FFEE794F82800810703D420464B
:1027800000F03AFA03E020F0010084F8280000226B
:1027900004A9286800F0D2FD002889D109B030BD15
:1027A000540000202DE9FC410F46054600F074FB63
:1027B00001A800F067F80446019818B100F0DCFFAA
:1027C000BDE8FC81254EAFB130690068D0B3002769
:1027D000291B3A46306800F091FA00F0CDFF00283E
:1027E000EED11F494FF080500860BFF34F8FBFF309
:1027F0006F8FE5E7A542EBD800F0BEFFF0682746F3
:10280000C068C468201D00F067F994F828004107EB
:1028100019D5A0692B4641193A462046FFF71AFF01
:10282000A8B100200346014600902A46204601F048
:1028300035F860B9502080F31188BFF34F8FBFF394
:102840006F8FFEE707E020F0010084F82800216A7E
:1028500020468847B4E70127BAE70000540000206B
:1028600004ED00E00648416B096829B1416BC96875
:10287000C9684968816270474FF0FF31FAE700008C
:102880001800002070B5054600F094FE064E044680
:10289000B068844203D200F009F8012000E0002073
:1028A00028602046B46070BD54000020F8B5194D72
:1028B00020E0C068C4680668201D00F00DF9216A98
:1028C0002046884794F82800400713D5A069304473
:1028D000B04206D924616060211DE86800F034F937
:1028E00008E000200346014600903246204600F0F2
:1028F000D5FF38B1E86801680029DAD12969C5E94E
:102900000310F8BD502080F31188BFF34F8FBFF341
:102910006F8FFEE75400002008484068401C4FF0CD
:10292000500080F3118804D0BFF34F8FBFF36F8F37
:10293000FEE7BFF34F8FBFF36F8FFEE78C000020E1
:10294000074CE068016841B1C0680021D0F8000080
:10295000FFF728FFFFF7A8FEF3E701210020F7E7C4
:10296000540000202DE9F041044600F011F994F9DB
:10297000455004F1240609E0606A48B1304600F091
:10298000C3FE08B100F00AFA6D1E6DB2002DF3DC33
:102990004FF0FF3684F8456000F01AF900F0F8F8BF
:1029A00094F9445004F1100709E0206948B1384611
:1029B00000F0AAFE08B100F0F1F96D1E6DB2002D15
:1029C000F3DC84F84460BDE8F04100F001B9000098
:1029D0002DE9F0410546002700F05EFA324E3068DE
:1029E00008B9FFF751FD706905424ED1C5B30835EE
:1029F00068070ED005F00700C0F10800054468071D
:102A000007D0502080F31188BFF34F8FBFF36F8F33
:102A1000FEE72DB37068854237D823481830014649
:102A20000C6801E020460C466168A94202D2216888
:102A30000029F7D131688C4227D0076821680160EE
:102A400060680837411B10290FD96019420708D068
:102A5000502080F31188BFF34F8FBFF36F8FFEE7D5
:102A600013E041606560FFF7CFFD61687068401A50
:102A70007060B268904200D2B0607069014300207B
:102A8000C4E90001F068401CF06000F075FE7807B2
:102A900007D0502080F31188BFF34F8FBFF36F8FA3
:102AA000FEE73846BDE8F0816C00002010B5031F3A
:102AB0004FF080741C601B1F21F001011960191F69
:102AC000044B0B6014390A60091F6FF0020244388E
:102AD0000A6010BD19290008D0E9013201699A6025
:102AE000D0E901235A604A68824201D182684A6073
:102AF000002202610868401E0860086870470000F4
:102B0000034B036003F15C00086080201060704795
:102B1000080B0020044B036003F15C0008604FF4D5
:102B20008070106070470000640D002000F1080103
:102B30004FF0FF32C0E90112C16001610021016064
:102B4000704700210161704730B50B685A1C02D0F4
:102B500000F1080202E0026904E022465468256898
:102B60009D42FAD953684B6099608A605160086150
:102B70000168491C016030BD42684A6093688B60FF
:102B800093685960916008610168491C0160704751
:102B9000502080F31188BFF34F8FBFF36F8F0A4926
:102BA0004868401C486001280CD10848006810F0B3
:102BB000FF0F07D0502080F31188BFF34F8FBFF372
:102BC0006F8FFEE7704700008C00002004ED00E0EE
:102BD0000849486828B1401E486001D180F3118837
:102BE0007047502080F31188BFF34F8FBFF36F8F72
:102BF000FEE700008C00002070B500282AD0164D9A
:102C0000A0F1080460686969084207D1502080F388
:102C10001188BFF34F8FBFF36F8FFEE722683AB181
:102C2000502080F31188BFF34F8FBFF36F8FFEE703
:102C30008843606000F030F9606869680844686043
:102C40002046FFF7E1FC2869401C2861BDE8704080
:102C500000F092BD70BD00006C0000204FF0E0203D
:102C600000210161816105494FF47A720968B1FB65
:102C7000F2F1491E416107210161704714000020F3
:102C800010B5FDF72DFB114910280ED300F1E020FF
:102C900090F8F0030A78904207D2502080F3118810
:102CA000BFF34F8FBFF36F8FFEE709480068896855
:102CB00000F4E060884207D9502080F31188BFF308
:102CC0004F8FBFF36F8FFEE710BD00008C00002018
:102CD0000CED00E010B5084B002200BF53F8324065
:102CE0001CB1521C082AF9D310BD43F8321003EB73
:102CF000C201486010BD0000EC04002070B515460C
:102D00000E460446FFF744FF94F944100020491C86
:102D100001D184F8440094F94510491C01D184F88C
:102D20004500FFF755FFA06B28B92A46314604F14C
:102D3000240000F051F82046BDE87040FFF712BEB5
:102D400010B5020014D00F48006B38B1502080F34A
:102D50001188BFF34F8FBFF36F8FFEE700F09CF831
:102D600000211046FFF76AFA00F006FD002807D19F
:102D700005494FF080500860BFF34F8FBFF36F8F4E
:102D800010BD00001800002004ED00E002490A6AAE
:102D90000260C968416070471800002001490120A5
:102DA000C86170471800002010B50C4650B10949A1
:102DB00009681831FFF7C8FE2046BDE81040012120
:102DC000FFF73CBA502080F31188BFF34F8FBFF359
:102DD0006F8FFEE71800002070B514460D4668B1ED
:102DE0000A4909681831FFF7C7FE0CB14FF0FF35EB
:102DF00021462846BDE87040FFF720BA502080F3F6
:102E00001188BFF34F8FBFF36F8FFEE718000020CC
:102E100030B587B00024039405AA04A903A804943C
:102E2000FFF76EFEDDE903010094CDE901100023F8
:102E300015A11748059A00F084FB164D0028E8629A
:102E40001FD000F0FBFC012809D0401C19D15020F4
:102E500080F31188BFF34F8FBFF36F8FFEE75020D1
:102E600080F31188BFF34F8FBFF36F8F4FF0FF30A8
:102E7000A86201206861EC6007B0BDE8304000F056
:102E800045B807B030BD000049444C450000000083
:102E9000D5240008180000200248016B491C01637A
:102EA0007047000018000020164810B5016B11B1E2
:102EB0000121C16110BD0021C1610169124A01E017
:102EC000B9B1491E01EB810352F82330002BF7D032
:102ED00001EB810302EB830202F1080453685B6893
:102EE0005360A34201D15B685360DA6802600161FC
:102EF00010BD502080F31188BFF34F8FBFF36F8F49
:102F0000FEE70000180000202C0500201CB5374803
:102F10000168374A914207D1502080F31188BFF3EE
:102F20004F8FBFF36F8FFEE700683149491E88421B
:102F300007D1502080F31188BFF34F8FBFF36F8FFD
:102F4000FEE72C4908780190FF20087008788DF87A
:102F500000009DF800009DF8002000F0F000904275
:102F600007D0502080F31188BFF34F8FBFF36F8FCE
:102F7000FEE79DF80000204C00F050002070072074
:102F8000A06005E09DF8002052008DF80020401E52
:102F90009DF800201206F5D4A060032807D0502029
:102FA00080F31188BFF34F8FBFF36F8FFEE74FF4AD
:102FB0004070A060019808700C482030016841F40E
:102FC00070010160016841F070410160FFF746FE49
:102FD00000206060FDF74CF90848016841F040416D
:102FE0000160FDF731F900201CBD000000ED00E09C
:102FF00071C20F4100E400E08C00002034EF00E0DB
:1030000010B5502080F31188BFF34F8FBFF36F8F3F
:1030100000F0D6FA18B104494FF080500860002043
:1030200080F3118810BD000004ED00E038B5049D68
:1030300018B153B1CAB181B120E0502080F311889A
:10304000BFF34F8FBFF36F8FFEE7502080F31188DF
:10305000BFF34F8FBFF36F8FFEE7502080F31188CF
:10306000BFF34F8FBFF36F8FFEE739B1502080F36E
:103070001188BFF34F8FBFF36F8FFEE750241C46BC
:10308000012384F846302B460094FFF753FA20467C
:1030900038BD000070B50D46040025D0FFF778FD5F
:1030A000D4E90F20216802FB0011A1600021A16377
:1030B000216861600A46D4E90F01401E00FB01212E
:1030C000E16021464FF0FF3001F8440F487004F1F1
:1030D00010008DB1FFF72AFD04F12400FFF726FD53
:1030E000FFF776FD012070BD502080F31188BFF3FB
:1030F0004F8FBFF36F8FFEE721690029F0D000F0FA
:1031000003FB0028ECD004494FF080500860BFF367
:103110004F8FBFF36F8FE3E704ED00E02DE9FF472A
:1031200082B01D468A464FF00008040003D0BAF171
:10313000000F08D011E0502080F31188BFF34F8FAB
:10314000BFF36F8FFEE7206C38B1502080F31188F9
:10315000BFF34F8FBFF36F8FFEE7022D0AD1E06BF5
:10316000012807D0502080F31188BFF34F8FBFF3A1
:103170006F8FFEE700F010FA3F4F4FF000094FF05D
:10318000805648B9049838B1502080F31188BFF3B5
:103190004F8FBFF36F8FFEE7FFF7FAFCA06BE16B79
:1031A000884207D3022D05D00498D0B1B8F1000FA2
:1031B0001AD01EE02A4651462046FFF714F9616AEC
:1031C00019B104F1240000F09FFA20B13E60BFF372
:1031D0004F8FBFF36F8FFFF7FBFC012006B0BDE8F8
:1031E000F087FFF7F5FC22E06846FFF7CFFD4FF0D0
:1031F0000108FFF7EDFCFFF74FFEFFF7C9FC94F95C
:103200004400401C01D184F8449094F94500401CCE
:1032100001D184F84590FFF7DBFC04A9684600F073
:1032200029F930B12046FFF79DFB00F0A5FA0020F8
:10323000D4E7FFF7ADFCA06BE16B884213D1FFF739
:10324000C7FC04F110000499FFF7AEFD2046FFF71C
:1032500089FB00F091FA00289ED13E60BFF34F8FAA
:10326000BFF36F8F98E7FFF7B3FC2046FFF77AFBB9
:1032700000F082FA90E7000004ED00E02DE9F0474D
:103280001F4690468946040003D0B9F1000F08D0CC
:1032900011E0502080F31188BFF34F8FBFF36F8F81
:1032A000FEE7206C38B1502080F31188BFF34F8FB8
:1032B000BFF36F8FFEE7022F0AD1E06B012807D022
:1032C000502080F31188BFF34F8FBFF36F8FFEE75D
:1032D000FFF7D6FC5020EFF3118680F31188BFF37F
:1032E0004F8FBFF36F8FA06BE16B884206D3022F25
:1032F00004D0002086F31188BDE8F08794F945508A
:10330000A06B3A4649462046FFF76DF8681C04D08A
:103310006D1C84F845500120ECE7606A0028FAD063
:1033200004F1240000F0F0F90028F4D0B8F1000F07
:10333000F1D00121C8F80010EDE700002DE9F747B2
:10334000002683B08A46040003D0BAF1000F08D0EB
:1033500011E0502080F31188BFF34F8FBFF36F8FC0
:10336000FEE7206C38B1502080F31188BFF34F8FF7
:10337000BFF36F8FFEE700F00FF9DFF8F4804FF036
:1033800000094FF0805748B9059838B1502080F3B4
:103390001188BFF34F8FBFF36F8FFEE7FFF7F8FB86
:1033A000A56BC5B151462046FFF70AF86D1EA5630F
:1033B000206950B104F1100000F0A6F928B1C8F856
:1033C0000070BFF34F8FBFF36F8FFFF701FC012039
:1033D00006B0BDE8F087059808B11EB106E0FFF71A
:1033E000F7FB27E06846FFF7D1FC0126FFF7F0FB6B
:1033F000FFF752FDFFF7CCFB94F94400401C01D1CC
:1034000084F8449094F94500401C01D184F845901B
:10341000FFF7DEFB05A9684600F02CF800282046DF
:103420000AD0FFF79FFA00F0A7F92046FFF72EF920
:103430000028B3D00020CBE7FFF728F990B104F1C2
:1034400024000599FFF7B0FC2046FFF78BFA00F047
:1034500093F90028A2D1C8F80070BFF34F8FBFF3D3
:103460006F8F9BE72046FFF77DFA00F085F995E71F
:1034700004ED00E02DE9F0410C46050011D0C4B187
:10348000FFF786FB174BDA686E682068911B471CB4
:1034900017D02F681B6A9F4219D0964217D8012473
:1034A00010E0502080F31188BFF34F8FBFF36F8F70
:1034B000FEE7502080F31188BFF34F8FBFF36F8F6B
:1034C000FEE70024FFF784FB2046BDE8F081884238
:1034D00005D9401A20602846FFF758FCF1E7002084
:1034E0002060DCE7180000202DE9FF5F8346DDE95E
:1034F0000E87994616468A469000FFF769FA05003E
:103500001CD05C20FFF764FA040014D0002025636F
:1035100084F85900CDE90240CDE900874B46324698
:1035200051465846FFF718F82046FEF7B5FE012031
:1035300004B0BDE8F09F2846FFF75EFB4FF0FF3078
:10354000F6E7F0B585B0DDE90B640A9DA6B1DCB104
:103550005C2700972663022684F85960002604AF92
:10356000CDE90246CDE90057FEF7F6FF2046FEF70B
:1035700093FE049805B0F0BD502080F31188BFF38E
:103580004F8FBFF36F8FFEE7502080F31188BFF39A
:103590004F8FBFF36F8FFEE70548416919B1006B8C
:1035A00018B10020704701207047022070470000CA
:1035B000180000200148C068704700001800002073
:1035C0002DE9F0412E4C0027206B28B1A069401C4A
:1035D000A0613846BDE8F081E668761CE66013D14C
:1035E000606B006838B1502080F31188BFF34F8FB3
:1035F000BFF36F8FFEE7606BA16B6163A063206A0E
:10360000401C2062FFF72EF9A06ADFF8788086421E
:1036100009D3606B0068A0B1606BC068C56868685A
:10362000864211D2A0622068C06A00EB800158F87F
:103630002100012800D90127E0690028C9D001270D
:10364000C7E74FF0FF30EDE7281DFFF745FAA86AFE
:1036500018B105F11800FFF73FFAE86A21698842BE
:1036600000D9206100EB800108EB8100291DFFF7E4
:1036700083FAE86A2168C96A8842CAD30127C8E781
:10368000180000202C05002070B504004FF0000148
:1036900033D01B4D2868844207D0502080F3118816
:1036A000BFF34F8FBFF36F8FFEE7206D38B1401E21
:1036B0002065E36CE26A9A421FD040B11DE05020C1
:1036C00080F31188BFF34F8FBFF36F8FFEE7201D8C
:1036D000FFF702FAE06CE062C0F13800A061E06A36
:1036E0002969884200D92861064900EB800001EB76
:1036F0008000211DFFF740FA0121084670BD00003F
:10370000180000202C05002070B5C068C46854B1B2
:1037100004F118000646FFF7DFF9144D286B50B18D
:103720003146134815E0502080F31188BFF34F8FC6
:10373000BFF36F8FFEE7201DFFF7CEF9E06A29691E
:10374000884200D928610B4900EB800001EB800022
:10375000211DFFF711FAE06A2968C96A884202D977
:103760000120E86170BD002070BD0000180000203D
:10377000B40900202C0500202DE9F0472C4D002431
:103780002746286B38B1FFF703FA286B401E2863E1
:10379000286B40B146E0502080F31188BFF34F8F73
:1037A000BFF36F8FFEE7A968224E0120D1B3A6F5C3
:1037B000916980463068E0B1F068C46804F118008F
:1037C000FFF78AF9201DFFF787F9E06A2969884227
:1037D00000D9286100EB800109EB8100211DFFF772
:1037E000CBF9E06A2968C96A8842E3D3C5F81C802E
:1037F000E0E70CB1FFF736F8AC694CB14FEA0806C8
:10380000FFF7DEFE00B1EE61641EF9D10020A86171
:10381000E86938B10849012738070860BFF34F8FBE
:10382000BFF36F8FFFF7D4F93846BDE8F08700008B
:1038300018000020B409002004ED00E010B586B0A7
:10384000FEF792FD114C2068B8B10020039004905F
:1038500005AA04A903A8FFF75DF9DDE90321022009
:103860008DE8070000230AA10B48059AFFF769FEBF
:10387000606010B106B0012010BD502080F31188A7
:10388000BFF34F8FBFF36F8FFEE70000540000209F
:10389000546D722053766300412900082DE9FF41E1
:1038A0001E46134602000A9D4FF0000016D0144C2D
:1038B0002768002F0FD0CDE900130292062917DAEE
:1038C000FFF76AFE02284FF000030FD0002269467E
:1038D0002068FFF723FC04B0BDE8F081502080F39E
:1038E0001188BFF34F8FBFF36F8FFEE72A46EEE7D5
:1038F0000023324669463846FFF7C0FCEBE700007C
:10390000540000204FF04070E1EE100A70470000B4
:103910007C390008000000000000000000000000EA
:10392000000000000002000018000000000000007D
:10393000000000007039000800000000480400206A
:103940005C000000480200200002000008000000A7
:103950000000000000000000000000000000000067
:103960000102030406070809000000000102030425
:103970004C45445F5461736B0000000064656661F0
:10398000756C745461736B00A83900080000002046
:1039900098000000C4010008403A00089800002088
:1039A00088530000E0010008000000000000000053
:1039B0000100000010000000000000000024F400DE
:1039C00000000000000000000000000000000000F7
:1039D00000000000000000000000000000000000E7
:1039E00000000000000000000000000000000000D7
:1039F00000000000000000000000000000000000C7
:103A000000000000000000000000000000000000B6
:103A100000000000000000000000000000000000A6
:103A20000000000000000000000000000000000096
:103A30000000000000000000AAAAAAAA00000000DE
:040000050800018965
:00000001FF
